{
  "_format": "hh-sol-artifact-1",
  "contractName": "PlasmaTaskEscrow",
  "sourceName": "contracts/PlasmaTaskEscrow.sol",
  "abi": [
    {
      "inputs": [
        {
          "internalType": "address",
          "name": "_usdt",
          "type": "address"
        }
      ],
      "stateMutability": "nonpayable",
      "type": "constructor"
    },
    {
      "anonymous": false,
      "inputs": [
        {
          "indexed": true,
          "internalType": "uint256",
          "name": "taskId",
          "type": "uint256"
        },
        {
          "indexed": true,
          "internalType": "address",
          "name": "freelancer",
          "type": "address"
        },
        {
          "indexed": false,
          "internalType": "string",
          "name": "proposal",
          "type": "string"
        }
      ],
      "name": "FreelancerApplied",
      "type": "event"
    },
    {
      "anonymous": false,
      "inputs": [
        {
          "indexed": true,
          "internalType": "uint256",
          "name": "taskId",
          "type": "uint256"
        },
        {
          "indexed": true,
          "internalType": "address",
          "name": "freelancer",
          "type": "address"
        },
        {
          "indexed": false,
          "internalType": "uint256",
          "name": "deadline",
          "type": "uint256"
        }
      ],
      "name": "FreelancerSelected",
      "type": "event"
    },
    {
      "anonymous": false,
      "inputs": [
        {
          "indexed": true,
          "internalType": "uint256",
          "name": "taskId",
          "type": "uint256"
        },
        {
          "indexed": false,
          "internalType": "uint256",
          "name": "amount",
          "type": "uint256"
        }
      ],
      "name": "TaskFunded",
      "type": "event"
    },
    {
      "anonymous": false,
      "inputs": [
        {
          "indexed": true,
          "internalType": "uint256",
          "name": "taskId",
          "type": "uint256"
        },
        {
          "indexed": true,
          "internalType": "address",
          "name": "client",
          "type": "address"
        },
        {
          "indexed": false,
          "internalType": "uint256",
          "name": "reward",
          "type": "uint256"
        },
        {
          "indexed": false,
          "internalType": "string",
          "name": "description",
          "type": "string"
        }
      ],
      "name": "TaskPosted",
      "type": "event"
    },
    {
      "anonymous": false,
      "inputs": [
        {
          "indexed": true,
          "internalType": "uint256",
          "name": "taskId",
          "type": "uint256"
        },
        {
          "indexed": true,
          "internalType": "address",
          "name": "client",
          "type": "address"
        }
      ],
      "name": "WorkApproved",
      "type": "event"
    },
    {
      "anonymous": false,
      "inputs": [
        {
          "indexed": true,
          "internalType": "uint256",
          "name": "taskId",
          "type": "uint256"
        },
        {
          "indexed": true,
          "internalType": "address",
          "name": "freelancer",
          "type": "address"
        }
      ],
      "name": "WorkSubmitted",
      "type": "event"
    },
    {
      "inputs": [],
      "name": "USDT",
      "outputs": [
        {
          "internalType": "address",
          "name": "",
          "type": "address"
        }
      ],
      "stateMutability": "view",
      "type": "function"
    },
    {
      "inputs": [
        {
          "internalType": "uint256",
          "name": "",
          "type": "uint256"
        },
        {
          "internalType": "uint256",
          "name": "",
          "type": "uint256"
        }
      ],
      "name": "applicants",
      "outputs": [
        {
          "internalType": "address",
          "name": "",
          "type": "address"
        }
      ],
      "stateMutability": "view",
      "type": "function"
    },
    {
      "inputs": [
        {
          "internalType": "uint256",
          "name": "taskId",
          "type": "uint256"
        },
        {
          "internalType": "string",
          "name": "proposalText",
          "type": "string"
        }
      ],
      "name": "applyForTask",
      "outputs": [],
      "stateMutability": "nonpayable",
      "type": "function"
    },
    {
      "inputs": [
        {
          "internalType": "uint256",
          "name": "taskId",
          "type": "uint256"
        }
      ],
      "name": "approveWork",
      "outputs": [],
      "stateMutability": "nonpayable",
      "type": "function"
    },
    {
      "inputs": [
        {
          "internalType": "uint256",
          "name": "taskId",
          "type": "uint256"
        }
      ],
      "name": "fundTask",
      "outputs": [],
      "stateMutability": "nonpayable",
      "type": "function"
    },
    {
      "inputs": [
        {
          "internalType": "uint256",
          "name": "taskId",
          "type": "uint256"
        }
      ],
      "name": "getApplicants",
      "outputs": [
        {
          "internalType": "address[]",
          "name": "",
          "type": "address[]"
        }
      ],
      "stateMutability": "view",
      "type": "function"
    },
    {
      "inputs": [
        {
          "internalType": "uint256",
          "name": "taskId",
          "type": "uint256"
        },
        {
          "internalType": "address",
          "name": "freelancer",
          "type": "address"
        }
      ],
      "name": "getProposal",
      "outputs": [
        {
          "internalType": "string",
          "name": "",
          "type": "string"
        }
      ],
      "stateMutability": "view",
      "type": "function"
    },
    {
      "inputs": [
        {
          "internalType": "string",
          "name": "description",
          "type": "string"
        },
        {
          "internalType": "uint256",
          "name": "reward",
          "type": "uint256"
        }
      ],
      "name": "postTask",
      "outputs": [],
      "stateMutability": "nonpayable",
      "type": "function"
    },
    {
      "inputs": [
        {
          "internalType": "uint256",
          "name": "",
          "type": "uint256"
        },
        {
          "internalType": "address",
          "name": "",
          "type": "address"
        }
      ],
      "name": "proposals",
      "outputs": [
        {
          "internalType": "string",
          "name": "",
          "type": "string"
        }
      ],
      "stateMutability": "view",
      "type": "function"
    },
    {
      "inputs": [
        {
          "internalType": "uint256",
          "name": "taskId",
          "type": "uint256"
        },
        {
          "internalType": "address",
          "name": "freelancer",
          "type": "address"
        },
        {
          "internalType": "uint256",
          "name": "deadlineTimestamp",
          "type": "uint256"
        }
      ],
      "name": "selectFreelancer",
      "outputs": [],
      "stateMutability": "nonpayable",
      "type": "function"
    },
    {
      "inputs": [
        {
          "internalType": "uint256",
          "name": "taskId",
          "type": "uint256"
        }
      ],
      "name": "submitWork",
      "outputs": [],
      "stateMutability": "nonpayable",
      "type": "function"
    },
    {
      "inputs": [],
      "name": "taskCounter",
      "outputs": [
        {
          "internalType": "uint256",
          "name": "",
          "type": "uint256"
        }
      ],
      "stateMutability": "view",
      "type": "function"
    },
    {
      "inputs": [
        {
          "internalType": "uint256",
          "name": "",
          "type": "uint256"
        }
      ],
      "name": "tasks",
      "outputs": [
        {
          "internalType": "address",
          "name": "client",
          "type": "address"
        },
        {
          "internalType": "address",
          "name": "freelancer",
          "type": "address"
        },
        {
          "internalType": "string",
          "name": "description",
          "type": "string"
        },
        {
          "internalType": "uint256",
          "name": "reward",
          "type": "uint256"
        },
        {
          "internalType": "uint256",
          "name": "deadline",
          "type": "uint256"
        },
        {
          "internalType": "uint256",
          "name": "createdAt",
          "type": "uint256"
        },
        {
          "internalType": "enum PlasmaTaskEscrow.TaskStatus",
          "name": "status",
          "type": "uint8"
        }
      ],
      "stateMutability": "view",
      "type": "function"
    }
  ],
  "bytecode": "0x608060405234801561001057600080fd5b506040516112cc3803806112cc83398101604081905261002f91610054565b600180546001600160a01b0319166001600160a01b0392909216919091179055610084565b60006020828403121561006657600080fd5b81516001600160a01b038116811461007d57600080fd5b9392505050565b611239806100936000396000f3fe608060405234801561001057600080fd5b50600436106100cf5760003560e01c8063752430df1161008c578063a72b632511610066578063a72b6325146101cf578063c4c11523146101e2578063c54e44eb146101f5578063d1ff21c21461020857600080fd5b8063752430df146101765780638d9776721461019657806390ce6787146101bc57600080fd5b806324fc879e146100d45780633d01e0fa146100e95780634d65b758146100fc5780635153d4e11461010f578063586717301461013f5780636cf5d86e14610156575b600080fd5b6100e76100e2366004610c5a565b61021b565b005b6100e76100f7366004610c8f565b610333565b6100e761010a366004610cf1565b610489565b61012261011d366004610d3d565b6105fe565b6040516001600160a01b0390911681526020015b60405180910390f35b61014860005481565b604051908152602001610136565b610169610164366004610c8f565b610636565b6040516101369190610d5f565b610189610184366004610dac565b6106a2565b6040516101369190610e1e565b6101a96101a4366004610c8f565b610747565b6040516101369796959493929190610e4e565b6100e76101ca366004610ebe565b61081d565b6101896101dd366004610dac565b610915565b6100e76101f0366004610c8f565b6109cc565b600154610122906001600160a01b031681565b6100e7610216366004610c8f565b610ad0565b600083815260026020526040902080546001600160a01b0316331461025b5760405162461bcd60e51b815260040161025290610f0a565b60405180910390fd5b6000600682015460ff16600781111561027657610276610e38565b146102b35760405162461bcd60e51b815260206004820152600d60248201526c2a30b9b5903737ba1037b832b760991b6044820152606401610252565b600181810180546001600160a01b0319166001600160a01b0386161790556004820183905560068201805460ff191682800217905550826001600160a01b0316847fba05c38d28e2e6022a8f924642d334448e5d8af223b5ae9585baad3d0ce776ec8460405161032591815260200190565b60405180910390a350505050565b600081815260026020526040902080546001600160a01b0316331461036a5760405162461bcd60e51b815260040161025290610f0a565b6004600682015460ff16600781111561038557610385610e38565b146103c75760405162461bcd60e51b81526020600482015260126024820152714e6f20776f726b20746f20617070726f766560701b6044820152606401610252565b60068101805460ff191660051790556001805490820154600383015460405163a9059cbb60e01b81526001600160a01b039283166004820152602481019190915291169063a9059cbb906044016020604051808303816000875af1158015610433573d6000803e3d6000fd5b505050506040513d601f19601f820116820180604052508101906104579190610f32565b50604051339083907f8995e1d0bb339962f8aaef0145457b5833c9c7fe952f6124ebe6708c0ad690de90600090a35050565b60008054908061049883610f54565b91905055506040518060e00160405280336001600160a01b0316815260200160006001600160a01b0316815260200184848080601f0160208091040260200160405190810160405280939291908181526020018383808284376000920182905250938552505050602082018490526040820181905242606083015260809091015260008054815260026020818152604092839020845181546001600160a01b03199081166001600160a01b0392831617835592860151600183018054909416911617909155918301519082019061056f908261101a565b50606082015160038201556080820151600482015560a0820151600582015560c082015160068201805460ff191660018360078111156105b1576105b1610e38565b0217905550506000546040513392507f05fddf931b4d1e3b95f2b6fb12ab475fe9555ce60fd2bfe66b84060f2dc22a2e906105f190859088908890611103565b60405180910390a3505050565b6003602052816000526040600020818154811061061a57600080fd5b6000918252602090912001546001600160a01b03169150829050565b60008181526003602090815260409182902080548351818402810184019094528084526060939283018282801561069657602002820191906000526020600020905b81546001600160a01b03168152600190910190602001808311610678575b50505050509050919050565b6004602090815260009283526040808420909152908252902080546106c690610f91565b80601f01602080910402602001604051908101604052809291908181526020018280546106f290610f91565b801561073f5780601f106107145761010080835404028352916020019161073f565b820191906000526020600020905b81548152906001019060200180831161072257829003601f168201915b505050505081565b60026020819052600091825260409091208054600182015492820180546001600160a01b0392831694909216929161077e90610f91565b80601f01602080910402602001604051908101604052809291908181526020018280546107aa90610f91565b80156107f75780601f106107cc576101008083540402835291602001916107f7565b820191906000526020600020905b8154815290600101906020018083116107da57829003601f168201915b505050506003830154600484015460058501546006909501549394919390925060ff1687565b600083815260026020526040812090600682015460ff16600781111561084557610845610e38565b146108885760405162461bcd60e51b8152602060048201526013602482015272105c1c1b1a58d85d1a5bdb9cc818db1bdcd959606a1b6044820152606401610252565b600084815260036020908152604080832080546001810182559084528284200180546001600160a01b031916339081179091558784526004835281842090845290915290206108d8838583611126565b50336001600160a01b0316847ff03b76c48697a5f198a861f976d266936d7b3fc36b3fffdbba075a84681a412085856040516103259291906111e7565b60008281526004602090815260408083206001600160a01b0385168452909152902080546060919061094690610f91565b80601f016020809104026020016040519081016040528092919081815260200182805461097290610f91565b80156109bf5780601f10610994576101008083540402835291602001916109bf565b820191906000526020600020905b8154815290600101906020018083116109a257829003601f168201915b5050505050905092915050565b600081815260026020526040902060018101546001600160a01b03163314610a365760405162461bcd60e51b815260206004820152601760248201527f4e6f742061737369676e656420667265656c616e6365720000000000000000006044820152606401610252565b6002600682015460ff166007811115610a5157610a51610e38565b14610a905760405162461bcd60e51b815260206004820152600f60248201526e15185cdac81b9bdd08199d5b991959608a1b6044820152606401610252565b60068101805460ff19166004179055604051339083907f2e1034180f85502b3a04560be6ed4c24fe9b9c9e0bd7f4e09720494ac48859fa90600090a35050565b600081815260026020526040902080546001600160a01b03163314610b075760405162461bcd60e51b815260040161025290610f0a565b6001600682015460ff166007811115610b2257610b22610e38565b14610b6f5760405162461bcd60e51b815260206004820152601760248201527f467265656c616e636572206e6f742073656c65637465640000000000000000006044820152606401610252565b60015460038201546040516323b872dd60e01b815233600482015230602482015260448101919091526001600160a01b03909116906323b872dd906064016020604051808303816000875af1158015610bcc573d6000803e3d6000fd5b505050506040513d601f19601f82011682018060405250810190610bf09190610f32565b5060068101805460ff19166002179055600381015460405190815282907f9173a7ae2321b61f50303df6b321c38912ca2a1079fc80645cf01202be566c769060200160405180910390a25050565b80356001600160a01b0381168114610c5557600080fd5b919050565b600080600060608486031215610c6f57600080fd5b83359250610c7f60208501610c3e565b9150604084013590509250925092565b600060208284031215610ca157600080fd5b5035919050565b60008083601f840112610cba57600080fd5b50813567ffffffffffffffff811115610cd257600080fd5b602083019150836020828501011115610cea57600080fd5b9250929050565b600080600060408486031215610d0657600080fd5b833567ffffffffffffffff811115610d1d57600080fd5b610d2986828701610ca8565b909790965060209590950135949350505050565b60008060408385031215610d5057600080fd5b50508035926020909101359150565b6020808252825182820181905260009190848201906040850190845b81811015610da05783516001600160a01b031683529284019291840191600101610d7b565b50909695505050505050565b60008060408385031215610dbf57600080fd5b82359150610dcf60208401610c3e565b90509250929050565b6000815180845260005b81811015610dfe57602081850181015186830182015201610de2565b506000602082860101526020601f19601f83011685010191505092915050565b602081526000610e316020830184610dd8565b9392505050565b634e487b7160e01b600052602160045260246000fd5b6001600160a01b0388811682528716602082015260e060408201819052600090610e7a90830188610dd8565b90508560608301528460808301528360a083015260088310610eac57634e487b7160e01b600052602160045260246000fd5b8260c083015298975050505050505050565b600080600060408486031215610ed357600080fd5b83359250602084013567ffffffffffffffff811115610ef157600080fd5b610efd86828701610ca8565b9497909650939450505050565b6020808252600e908201526d2737ba103a30b9b59037bbb732b960911b604082015260600190565b600060208284031215610f4457600080fd5b81518015158114610e3157600080fd5b600060018201610f7457634e487b7160e01b600052601160045260246000fd5b5060010190565b634e487b7160e01b600052604160045260246000fd5b600181811c90821680610fa557607f821691505b602082108103610fc557634e487b7160e01b600052602260045260246000fd5b50919050565b601f82111561101557600081815260208120601f850160051c81016020861015610ff25750805b601f850160051c820191505b8181101561101157828155600101610ffe565b5050505b505050565b815167ffffffffffffffff81111561103457611034610f7b565b611048816110428454610f91565b84610fcb565b602080601f83116001811461107d57600084156110655750858301515b600019600386901b1c1916600185901b178555611011565b600085815260208120601f198616915b828110156110ac5788860151825594840194600190910190840161108d565b50858210156110ca5787850151600019600388901b60f8161c191681555b5050505050600190811b01905550565b81835281816020850137506000828201602090810191909152601f909101601f19169091010190565b83815260406020820152600061111d6040830184866110da565b95945050505050565b67ffffffffffffffff83111561113e5761113e610f7b565b6111528361114c8354610f91565b83610fcb565b6000601f841160018114611186576000851561116e5750838201355b600019600387901b1c1916600186901b1783556111e0565b600083815260209020601f19861690835b828110156111b75786850135825560209485019460019092019101611197565b50868210156111d45760001960f88860031b161c19848701351681555b505060018560011b0183555b5050505050565b6020815260006111fb6020830184866110da565b94935050505056fea2646970667358221220d9ef93de3cbb8a9a35c12dbd6a5b91e4cb916f0e4da51ca0ec1b8d4ef1cbc4ef64736f6c63430008140033",
  "linkReferences": {},
  "deployedLinkReferences": {}
}