{
  "_format": "hh-sol-artifact-1",
  "contractName": "StandaloneSecureEscrow",
  "sourceName": "contracts/StandaloneSecureEscrow.sol",
  "abi": [
    {
      "inputs": [
        {
          "internalType": "address",
          "name": "_usdtAddress",
          "type": "address"
        }
      ],
      "stateMutability": "nonpayable",
      "type": "constructor"
    },
    {
      "inputs": [],
      "name": "ContractPaused",
      "type": "error"
    },
    {
      "inputs": [],
      "name": "InvalidTaskId",
      "type": "error"
    },
    {
      "inputs": [],
      "name": "ReentrancyDetected",
      "type": "error"
    },
    {
      "inputs": [],
      "name": "SelfAcceptance",
      "type": "error"
    },
    {
      "inputs": [],
      "name": "TaskExpired",
      "type": "error"
    },
    {
      "inputs": [
        {
          "internalType": "enum StandaloneSecureEscrow.TaskStatus",
          "name": "required",
          "type": "uint8"
        },
        {
          "internalType": "enum StandaloneSecureEscrow.TaskStatus",
          "name": "actual",
          "type": "uint8"
        }
      ],
      "name": "TaskNotInRequiredState",
      "type": "error"
    },
    {
      "inputs": [],
      "name": "UnauthorizedAccess",
      "type": "error"
    },
    {
      "anonymous": false,
      "inputs": [
        {
          "indexed": true,
          "internalType": "uint256",
          "name": "taskId",
          "type": "uint256"
        },
        {
          "indexed": true,
          "internalType": "address",
          "name": "freelancer",
          "type": "address"
        },
        {
          "indexed": false,
          "internalType": "uint256",
          "name": "acceptedAt",
          "type": "uint256"
        }
      ],
      "name": "TaskAccepted",
      "type": "event"
    },
    {
      "anonymous": false,
      "inputs": [
        {
          "indexed": true,
          "internalType": "uint256",
          "name": "taskId",
          "type": "uint256"
        },
        {
          "indexed": true,
          "internalType": "address",
          "name": "poster",
          "type": "address"
        },
        {
          "indexed": false,
          "internalType": "uint256",
          "name": "refundAmount",
          "type": "uint256"
        }
      ],
      "name": "TaskCancelled",
      "type": "event"
    },
    {
      "anonymous": false,
      "inputs": [
        {
          "indexed": true,
          "internalType": "uint256",
          "name": "taskId",
          "type": "uint256"
        },
        {
          "indexed": true,
          "internalType": "address",
          "name": "freelancer",
          "type": "address"
        },
        {
          "indexed": false,
          "internalType": "uint256",
          "name": "reward",
          "type": "uint256"
        },
        {
          "indexed": false,
          "internalType": "uint256",
          "name": "platformFee",
          "type": "uint256"
        }
      ],
      "name": "TaskCompleted",
      "type": "event"
    },
    {
      "anonymous": false,
      "inputs": [
        {
          "indexed": true,
          "internalType": "uint256",
          "name": "taskId",
          "type": "uint256"
        },
        {
          "indexed": true,
          "internalType": "address",
          "name": "disputer",
          "type": "address"
        }
      ],
      "name": "TaskDisputed",
      "type": "event"
    },
    {
      "anonymous": false,
      "inputs": [
        {
          "indexed": true,
          "internalType": "uint256",
          "name": "taskId",
          "type": "uint256"
        },
        {
          "indexed": true,
          "internalType": "address",
          "name": "poster",
          "type": "address"
        },
        {
          "indexed": false,
          "internalType": "string",
          "name": "details",
          "type": "string"
        },
        {
          "indexed": false,
          "internalType": "uint256",
          "name": "reward",
          "type": "uint256"
        },
        {
          "indexed": false,
          "internalType": "uint256",
          "name": "deadline",
          "type": "uint256"
        }
      ],
      "name": "TaskPosted",
      "type": "event"
    },
    {
      "anonymous": false,
      "inputs": [
        {
          "indexed": true,
          "internalType": "address",
          "name": "user",
          "type": "address"
        },
        {
          "indexed": false,
          "internalType": "uint256",
          "name": "amount",
          "type": "uint256"
        }
      ],
      "name": "WithdrawalMade",
      "type": "event"
    },
    {
      "anonymous": false,
      "inputs": [
        {
          "indexed": true,
          "internalType": "uint256",
          "name": "taskId",
          "type": "uint256"
        },
        {
          "indexed": true,
          "internalType": "address",
          "name": "freelancer",
          "type": "address"
        },
        {
          "indexed": false,
          "internalType": "string",
          "name": "submission",
          "type": "string"
        },
        {
          "indexed": false,
          "internalType": "uint256",
          "name": "submittedAt",
          "type": "uint256"
        }
      ],
      "name": "WorkSubmitted",
      "type": "event"
    },
    {
      "inputs": [],
      "name": "MAX_TASK_DURATION",
      "outputs": [
        {
          "internalType": "uint256",
          "name": "",
          "type": "uint256"
        }
      ],
      "stateMutability": "view",
      "type": "function"
    },
    {
      "inputs": [],
      "name": "PLATFORM_FEE",
      "outputs": [
        {
          "internalType": "uint256",
          "name": "",
          "type": "uint256"
        }
      ],
      "stateMutability": "view",
      "type": "function"
    },
    {
      "inputs": [
        {
          "internalType": "uint256",
          "name": "taskId",
          "type": "uint256"
        }
      ],
      "name": "acceptTask",
      "outputs": [],
      "stateMutability": "nonpayable",
      "type": "function"
    },
    {
      "inputs": [
        {
          "internalType": "uint256",
          "name": "taskId",
          "type": "uint256"
        }
      ],
      "name": "approveWork",
      "outputs": [],
      "stateMutability": "nonpayable",
      "type": "function"
    },
    {
      "inputs": [
        {
          "internalType": "uint256",
          "name": "taskId",
          "type": "uint256"
        }
      ],
      "name": "cancelTask",
      "outputs": [],
      "stateMutability": "nonpayable",
      "type": "function"
    },
    {
      "inputs": [
        {
          "internalType": "uint256",
          "name": "taskId",
          "type": "uint256"
        }
      ],
      "name": "disputeWork",
      "outputs": [],
      "stateMutability": "nonpayable",
      "type": "function"
    },
    {
      "inputs": [
        {
          "internalType": "address",
          "name": "token",
          "type": "address"
        },
        {
          "internalType": "uint256",
          "name": "amount",
          "type": "uint256"
        }
      ],
      "name": "emergencyWithdraw",
      "outputs": [],
      "stateMutability": "nonpayable",
      "type": "function"
    },
    {
      "inputs": [
        {
          "internalType": "address",
          "name": "",
          "type": "address"
        },
        {
          "internalType": "uint256",
          "name": "",
          "type": "uint256"
        }
      ],
      "name": "freelancerTasks",
      "outputs": [
        {
          "internalType": "uint256",
          "name": "",
          "type": "uint256"
        }
      ],
      "stateMutability": "view",
      "type": "function"
    },
    {
      "inputs": [],
      "name": "getAllActiveTasks",
      "outputs": [
        {
          "components": [
            {
              "internalType": "uint256",
              "name": "id",
              "type": "uint256"
            },
            {
              "internalType": "string",
              "name": "details",
              "type": "string"
            },
            {
              "internalType": "uint256",
              "name": "reward",
              "type": "uint256"
            },
            {
              "internalType": "uint256",
              "name": "deadline",
              "type": "uint256"
            },
            {
              "internalType": "address",
              "name": "poster",
              "type": "address"
            },
            {
              "internalType": "address",
              "name": "freelancer",
              "type": "address"
            },
            {
              "internalType": "string",
              "name": "submission",
              "type": "string"
            },
            {
              "internalType": "enum StandaloneSecureEscrow.TaskStatus",
              "name": "status",
              "type": "uint8"
            },
            {
              "internalType": "uint256",
              "name": "createdAt",
              "type": "uint256"
            },
            {
              "internalType": "uint256",
              "name": "acceptedAt",
              "type": "uint256"
            },
            {
              "internalType": "uint256",
              "name": "submittedAt",
              "type": "uint256"
            }
          ],
          "internalType": "struct StandaloneSecureEscrow.Task[]",
          "name": "",
          "type": "tuple[]"
        }
      ],
      "stateMutability": "view",
      "type": "function"
    },
    {
      "inputs": [
        {
          "internalType": "address",
          "name": "freelancer",
          "type": "address"
        }
      ],
      "name": "getFreelancerTasks",
      "outputs": [
        {
          "internalType": "uint256[]",
          "name": "",
          "type": "uint256[]"
        }
      ],
      "stateMutability": "view",
      "type": "function"
    },
    {
      "inputs": [
        {
          "internalType": "address",
          "name": "poster",
          "type": "address"
        }
      ],
      "name": "getPosterTasks",
      "outputs": [
        {
          "internalType": "uint256[]",
          "name": "",
          "type": "uint256[]"
        }
      ],
      "stateMutability": "view",
      "type": "function"
    },
    {
      "inputs": [
        {
          "internalType": "uint256",
          "name": "taskId",
          "type": "uint256"
        }
      ],
      "name": "getTask",
      "outputs": [
        {
          "components": [
            {
              "internalType": "uint256",
              "name": "id",
              "type": "uint256"
            },
            {
              "internalType": "string",
              "name": "details",
              "type": "string"
            },
            {
              "internalType": "uint256",
              "name": "reward",
              "type": "uint256"
            },
            {
              "internalType": "uint256",
              "name": "deadline",
              "type": "uint256"
            },
            {
              "internalType": "address",
              "name": "poster",
              "type": "address"
            },
            {
              "internalType": "address",
              "name": "freelancer",
              "type": "address"
            },
            {
              "internalType": "string",
              "name": "submission",
              "type": "string"
            },
            {
              "internalType": "enum StandaloneSecureEscrow.TaskStatus",
              "name": "status",
              "type": "uint8"
            },
            {
              "internalType": "uint256",
              "name": "createdAt",
              "type": "uint256"
            },
            {
              "internalType": "uint256",
              "name": "acceptedAt",
              "type": "uint256"
            },
            {
              "internalType": "uint256",
              "name": "submittedAt",
              "type": "uint256"
            }
          ],
          "internalType": "struct StandaloneSecureEscrow.Task",
          "name": "",
          "type": "tuple"
        }
      ],
      "stateMutability": "view",
      "type": "function"
    },
    {
      "inputs": [
        {
          "internalType": "uint256",
          "name": "taskId",
          "type": "uint256"
        }
      ],
      "name": "markExpired",
      "outputs": [],
      "stateMutability": "nonpayable",
      "type": "function"
    },
    {
      "inputs": [],
      "name": "owner",
      "outputs": [
        {
          "internalType": "address",
          "name": "",
          "type": "address"
        }
      ],
      "stateMutability": "view",
      "type": "function"
    },
    {
      "inputs": [],
      "name": "pause",
      "outputs": [],
      "stateMutability": "nonpayable",
      "type": "function"
    },
    {
      "inputs": [],
      "name": "paused",
      "outputs": [
        {
          "internalType": "bool",
          "name": "",
          "type": "bool"
        }
      ],
      "stateMutability": "view",
      "type": "function"
    },
    {
      "inputs": [
        {
          "internalType": "address",
          "name": "",
          "type": "address"
        }
      ],
      "name": "pendingWithdrawals",
      "outputs": [
        {
          "internalType": "uint256",
          "name": "",
          "type": "uint256"
        }
      ],
      "stateMutability": "view",
      "type": "function"
    },
    {
      "inputs": [
        {
          "internalType": "string",
          "name": "_details",
          "type": "string"
        },
        {
          "internalType": "uint256",
          "name": "_reward",
          "type": "uint256"
        },
        {
          "internalType": "uint256",
          "name": "_duration",
          "type": "uint256"
        }
      ],
      "name": "postTask",
      "outputs": [],
      "stateMutability": "nonpayable",
      "type": "function"
    },
    {
      "inputs": [
        {
          "internalType": "address",
          "name": "",
          "type": "address"
        },
        {
          "internalType": "uint256",
          "name": "",
          "type": "uint256"
        }
      ],
      "name": "posterTasks",
      "outputs": [
        {
          "internalType": "uint256",
          "name": "",
          "type": "uint256"
        }
      ],
      "stateMutability": "view",
      "type": "function"
    },
    {
      "inputs": [
        {
          "internalType": "uint256",
          "name": "taskId",
          "type": "uint256"
        },
        {
          "internalType": "bool",
          "name": "approveWork",
          "type": "bool"
        }
      ],
      "name": "resolveDispute",
      "outputs": [],
      "stateMutability": "nonpayable",
      "type": "function"
    },
    {
      "inputs": [
        {
          "internalType": "uint256",
          "name": "taskId",
          "type": "uint256"
        },
        {
          "internalType": "string",
          "name": "_submission",
          "type": "string"
        }
      ],
      "name": "submitWork",
      "outputs": [],
      "stateMutability": "nonpayable",
      "type": "function"
    },
    {
      "inputs": [],
      "name": "taskCounter",
      "outputs": [
        {
          "internalType": "uint256",
          "name": "",
          "type": "uint256"
        }
      ],
      "stateMutability": "view",
      "type": "function"
    },
    {
      "inputs": [
        {
          "internalType": "uint256",
          "name": "",
          "type": "uint256"
        }
      ],
      "name": "tasks",
      "outputs": [
        {
          "internalType": "uint256",
          "name": "id",
          "type": "uint256"
        },
        {
          "internalType": "string",
          "name": "details",
          "type": "string"
        },
        {
          "internalType": "uint256",
          "name": "reward",
          "type": "uint256"
        },
        {
          "internalType": "uint256",
          "name": "deadline",
          "type": "uint256"
        },
        {
          "internalType": "address",
          "name": "poster",
          "type": "address"
        },
        {
          "internalType": "address",
          "name": "freelancer",
          "type": "address"
        },
        {
          "internalType": "string",
          "name": "submission",
          "type": "string"
        },
        {
          "internalType": "enum StandaloneSecureEscrow.TaskStatus",
          "name": "status",
          "type": "uint8"
        },
        {
          "internalType": "uint256",
          "name": "createdAt",
          "type": "uint256"
        },
        {
          "internalType": "uint256",
          "name": "acceptedAt",
          "type": "uint256"
        },
        {
          "internalType": "uint256",
          "name": "submittedAt",
          "type": "uint256"
        }
      ],
      "stateMutability": "view",
      "type": "function"
    },
    {
      "inputs": [],
      "name": "unpause",
      "outputs": [],
      "stateMutability": "nonpayable",
      "type": "function"
    },
    {
      "inputs": [],
      "name": "usdt",
      "outputs": [
        {
          "internalType": "contract IERC20",
          "name": "",
          "type": "address"
        }
      ],
      "stateMutability": "view",
      "type": "function"
    },
    {
      "inputs": [],
      "name": "withdraw",
      "outputs": [],
      "stateMutability": "nonpayable",
      "type": "function"
    }
  ],
  "bytecode": "0x60a06040526002805460ff191690553480156200001b57600080fd5b5060405162002756380380620027568339810160408190526200003e91620000c2565b6001600160a01b038116620000995760405162461bcd60e51b815260206004820152601460248201527f496e76616c696420555344542061646472657373000000000000000000000000604482015260640160405180910390fd5b600080546001600160a01b031916331790556001600160a01b03166080526001600355620000f4565b600060208284031215620000d557600080fd5b81516001600160a01b0381168114620000ed57600080fd5b9392505050565b6080516126386200011e600039600081816101f701528181610ad00152611bb001526126386000f3fe608060405234801561001057600080fd5b506004361061018e5760003560e01c8063798c57a8116100de57806395ccea6711610097578063a8fbc1a211610071578063a8fbc1a214610378578063da8accf91461038b578063f3f437031461039e578063f76a2256146103be57600080fd5b806395ccea67146103325780639a1a4b5a14610345578063a765ca3d1461036557600080fd5b8063798c57a8146102b25780637eec20a8146102c75780638456cb59146102da5780638a08df8b146102e25780638d977672146102f55780638da5cb5b1461031f57600080fd5b80633ccfd60b1161014b5780635867173011610125578063586717301461026f5780635c975abb146102785780636b4e89a21461029557806377fd00c51461029f57600080fd5b80633ccfd60b1461024c5780633d01e0fa146102545780633f4ba83a1461026757600080fd5b80631bf6912d146101935780631d65e77e146101a857806328bed592146101d15780632f48ab7d146101f257806334b25ee21461023157806334fbc9a114610244575b600080fd5b6101a66101a1366004611f06565b6103d1565b005b6101bb6101b6366004611f06565b610570565b6040516101c89190612060565b60405180910390f35b6101e46101df366004612096565b61077a565b6040519081526020016101c8565b6102197f000000000000000000000000000000000000000000000000000000000000000081565b6040516001600160a01b0390911681526020016101c8565b6101a661023f3660046120d1565b6107ab565b6101e460fa81565b6101a6610a1a565b6101a6610262366004611f06565b610bb8565b6101a6610dbd565b6101e460015481565b6002546102859060ff1681565b60405190151581526020016101c8565b6101e462278d0081565b6101a66102ad366004611f06565b610df3565b6102ba610f9d565b6040516101c89190612101565b6101a66102d5366004611f06565b61132b565b6101a661151d565b6101a66102f0366004611f06565b611556565b610308610303366004611f06565b61167d565b6040516101c89b9a99989796959493929190612163565b600054610219906001600160a01b031681565b6101a6610340366004612096565b6117f6565b6103586103533660046121eb565b6118ee565b6040516101c89190612206565b6103586103733660046121eb565b61195a565b6101a6610386366004612293565b6119c4565b6101a66103993660046122e4565b611ca8565b6101e46103ac3660046121eb565b60076020526000908152604090205481565b6101e46103cc366004612096565b611e6d565b8060015481106103f45760405163fea707d960e01b815260040160405180910390fd5b60008281526004602052604081206007015483919060ff168181600681111561041f5761041f611f65565b1461044a578181604051635879e96d60e11b8152600401610441929190612330565b60405180910390fd5b600085815260046020526040902060030154859042111561047e5760405163c034310360e01b815260040160405180910390fd5b60025460ff16156104a25760405163ab35696f60e01b815260040160405180910390fd5b600086815260046020819052604090912090810154336001600160a01b03909116036104e15760405163cf032b0960e01b815260040160405180910390fd5b6005810180546001600160a01b0319163390811790915560078201805460ff1916600190811790915542600984018190556000838152600660209081526040808320805495860181558352918190209093018b90555190815289917ff7ca920358b7d716f572844484c380d6d3316d36f82c089598e7950b995b9e22910160405180910390a350505050505050565b610578611e89565b81600154811061059b5760405163fea707d960e01b815260040160405180910390fd5b6004600084815260200190815260200160002060405180610160016040529081600082015481526020016001820180546105d49061234b565b80601f01602080910402602001604051908101604052809291908181526020018280546106009061234b565b801561064d5780601f106106225761010080835404028352916020019161064d565b820191906000526020600020905b81548152906001019060200180831161063057829003601f168201915b5050509183525050600282015460208201526003820154604082015260048201546001600160a01b039081166060830152600583015416608082015260068201805460a09092019161069e9061234b565b80601f01602080910402602001604051908101604052809291908181526020018280546106ca9061234b565b80156107175780601f106106ec57610100808354040283529160200191610717565b820191906000526020600020905b8154815290600101906020018083116106fa57829003601f168201915b5050509183525050600782015460209091019060ff16600681111561073e5761073e611f65565b600681111561074f5761074f611f65565b81526020016008820154815260200160098201548152602001600a8201548152505091505b50919050565b6005602052816000526040600020818154811061079657600080fd5b90600052602060002001600091509150505481565b6000546001600160a01b031633146107d55760405162461bcd60e51b81526004016104419061237f565b8160015481106107f85760405163fea707d960e01b815260040160405180910390fd5b60008381526004602081905260409091206007015484919060ff168181600681111561082657610826611f65565b14610848578181604051635879e96d60e11b8152600401610441929190612330565b60026003540361086b5760405163c5f2be5160e01b815260040160405180910390fd5b6002600355600086815260046020526040902085156109775760078101805460ff19166003179055600281015460006127106108a860fa846123b8565b6108b291906123d5565b905060006108c082846123f7565b60058501546001600160a01b03166000908152600760205260408120805492935083929091906108f190849061240a565b9091555050600080546001600160a01b03168152600760205260408120805484929061091e90849061240a565b9091555050600584015460408051838152602081018590526001600160a01b03909216918c917fefef8593ec020b84769ddb5cf4469accbbd22d882a354bee97694405126ca694910160405180910390a3505050610a0c565b6007818101805460ff19166005179055600282015460048301546001600160a01b03166000908152602092909252604082208054919290916109ba90849061240a565b9091555050600481015460028201546040519081526001600160a01b039091169088907f06f63d695245e4cf8f0b7aae0b8da95876a4b173ba8d0d4466cc83c357dda3a8906020015b60405180910390a35b505060016003555050505050565b600260035403610a3d5760405163c5f2be5160e01b815260040160405180910390fd5b60026003553360009081526007602052604090205480610a985760405162461bcd60e51b81526020600482015260166024820152754e6f2070656e64696e67207769746864726177616c7360501b6044820152606401610441565b33600081815260076020526040808220919091555163a9059cbb60e01b81526004810191909152602481018290526001600160a01b037f0000000000000000000000000000000000000000000000000000000000000000169063a9059cbb906044016020604051808303816000875af1158015610b19573d6000803e3d6000fd5b505050506040513d601f19601f82011682018060405250810190610b3d919061241d565b610b7b5760405162461bcd60e51b815260206004820152600f60248201526e151c985b9cd9995c8819985a5b1959608a1b6044820152606401610441565b60405181815233907fbc158bb64f05d6383aea69bbb0b20c1bbf4b7a18f63359c5649b7c39e29d38849060200160405180910390a2506001600355565b806001548110610bdb5760405163fea707d960e01b815260040160405180910390fd5b6000828152600460208190526040909120015482906001600160a01b03163314610c1857604051631a27eac360e11b815260040160405180910390fd5b600083815260046020526040902060070154839060029060ff1681816006811115610c4557610c45611f65565b14610c67578181604051635879e96d60e11b8152600401610441929190612330565b600260035403610c8a5760405163c5f2be5160e01b815260040160405180910390fd5b600260038190555460ff1615610cb35760405163ab35696f60e01b815260040160405180910390fd5b600086815260046020526040812060078101805460ff1916600317905560028101549091612710610ce560fa846123b8565b610cef91906123d5565b90506000610cfd82846123f7565b60058501546001600160a01b0316600090815260076020526040812080549293508392909190610d2e90849061240a565b9091555050600080546001600160a01b031681526007602052604081208054849290610d5b90849061240a565b9091555050600584015460408051838152602081018590526001600160a01b03909216918c917fefef8593ec020b84769ddb5cf4469accbbd22d882a354bee97694405126ca694910160405180910390a3505060016003555050505050505050565b6000546001600160a01b03163314610de75760405162461bcd60e51b81526004016104419061237f565b6002805460ff19169055565b806001548110610e165760405163fea707d960e01b815260040160405180910390fd5b600082815260046020526040902060038101544211610e6e5760405162461bcd60e51b815260206004820152601460248201527315185cdac81b9bdd08195e1c1a5c9959081e595d60621b6044820152606401610441565b6000600782015460ff166006811115610e8957610e89611f65565b1480610ead57506001600782015460ff166006811115610eab57610eab611f65565b145b610f055760405162461bcd60e51b815260206004820152602360248201527f43616e6e6f7420657870697265207461736b20696e2063757272656e7420737460448201526261746560e81b6064820152608401610441565b6007818101805460ff19166006179055600282015460048301546001600160a01b0316600090815260209290925260408220805491929091610f4890849061240a565b9091555050600481015460028201546040519081526001600160a01b039091169084907f06f63d695245e4cf8f0b7aae0b8da95876a4b173ba8d0d4466cc83c357dda3a89060200160405180910390a3505050565b6060600060015467ffffffffffffffff811115610fbc57610fbc61243a565b604051908082528060200260200182016040528015610ff557816020015b610fe2611e89565b815260200190600190039081610fda5790505b5090506000805b6001548110156112765760008181526004602052604081206007015460ff16600681111561102c5761102c611f65565b148061105d5750600160008281526004602052604090206007015460ff16600681111561105b5761105b611f65565b145b156112645760046000828152602001908152602001600020604051806101600160405290816000820154815260200160018201805461109b9061234b565b80601f01602080910402602001604051908101604052809291908181526020018280546110c79061234b565b80156111145780601f106110e957610100808354040283529160200191611114565b820191906000526020600020905b8154815290600101906020018083116110f757829003601f168201915b5050509183525050600282015460208201526003820154604082015260048201546001600160a01b039081166060830152600583015416608082015260068201805460a0909201916111659061234b565b80601f01602080910402602001604051908101604052809291908181526020018280546111919061234b565b80156111de5780601f106111b3576101008083540402835291602001916111de565b820191906000526020600020905b8154815290600101906020018083116111c157829003601f168201915b5050509183525050600782015460209091019060ff16600681111561120557611205611f65565b600681111561121657611216611f65565b81526020016008820154815260200160098201548152602001600a8201548152505083838151811061124a5761124a612450565b6020026020010181905250818061126090612466565b9250505b8061126e81612466565b915050610ffc565b5060008167ffffffffffffffff8111156112925761129261243a565b6040519080825280602002602001820160405280156112cb57816020015b6112b8611e89565b8152602001906001900390816112b05790505b50905060005b82811015611323578381815181106112eb576112eb612450565b602002602001015182828151811061130557611305612450565b6020026020010181905250808061131b90612466565b9150506112d1565b509392505050565b80600154811061134e5760405163fea707d960e01b815260040160405180910390fd5b6000828152600460208190526040909120015482906001600160a01b0316331461138b57604051631a27eac360e11b815260040160405180910390fd5b6002600354036113ae5760405163c5f2be5160e01b815260040160405180910390fd5b600260038190555460ff16156113d75760405163ab35696f60e01b815260040160405180910390fd5b60008381526004602052604081209080600783015460ff16600681111561140057611400611f65565b148061143257506001600783015460ff16600681111561142257611422611f65565b1480156114325750816003015442115b90508061148d5760405162461bcd60e51b815260206004820152602360248201527f43616e6e6f742063616e63656c207461736b20696e2063757272656e7420737460448201526261746560e81b6064820152608401610441565b6007828101805460ff19166005179055600283015460048401546001600160a01b03166000908152602092909252604082208054919290916114d090849061240a565b90915550506002820154604051908152339086907f06f63d695245e4cf8f0b7aae0b8da95876a4b173ba8d0d4466cc83c357dda3a89060200160405180910390a350506001600355505050565b6000546001600160a01b031633146115475760405162461bcd60e51b81526004016104419061237f565b6002805460ff19166001179055565b8060015481106115795760405163fea707d960e01b815260040160405180910390fd5b6000828152600460208190526040909120015482906001600160a01b031633146115b657604051631a27eac360e11b815260040160405180910390fd5b600083815260046020526040902060070154839060029060ff16818160068111156115e3576115e3611f65565b14611605578181604051635879e96d60e11b8152600401610441929190612330565b60025460ff16156116295760405163ab35696f60e01b815260040160405180910390fd5b600086815260046020819052604080832060078101805460ff1916909317909255519091339189917f4c876e9aba8144edd2840298ef3fd0d8735009124d7a0185a41b12680c09378291a350505050505050565b6004602052600090815260409020805460018201805491929161169f9061234b565b80601f01602080910402602001604051908101604052809291908181526020018280546116cb9061234b565b80156117185780601f106116ed57610100808354040283529160200191611718565b820191906000526020600020905b8154815290600101906020018083116116fb57829003601f168201915b5050506002840154600385015460048601546005870154600688018054979894979396506001600160a01b039283169550911692916117569061234b565b80601f01602080910402602001604051908101604052809291908181526020018280546117829061234b565b80156117cf5780601f106117a4576101008083540402835291602001916117cf565b820191906000526020600020905b8154815290600101906020018083116117b257829003601f168201915b50505050600783015460088401546009850154600a90950154939460ff909216939092508b565b6000546001600160a01b031633146118205760405162461bcd60e51b81526004016104419061237f565b60025460ff166118725760405162461bcd60e51b815260206004820152601760248201527f436f6e7472616374206d757374206265207061757365640000000000000000006044820152606401610441565b60005460405163a9059cbb60e01b81526001600160a01b039182166004820152602481018390529083169063a9059cbb906044016020604051808303816000875af11580156118c5573d6000803e3d6000fd5b505050506040513d601f19601f820116820180604052508101906118e9919061241d565b505050565b6001600160a01b03811660009081526006602090815260409182902080548351818402810184019094528084526060939283018282801561194e57602002820191906000526020600020905b81548152602001906001019080831161193a575b50505050509050919050565b6001600160a01b03811660009081526005602090815260409182902080548351818402810184019094528084526060939283018282801561194e576020028201919060005260206000209081548152602001906001019080831161193a5750505050509050919050565b6002600354036119e75760405163c5f2be5160e01b815260040160405180910390fd5b600260038190555460ff1615611a105760405163ab35696f60e01b815260040160405180910390fd5b82611a525760405162461bcd60e51b8152602060048201526012602482015271456d707479207461736b2064657461696c7360701b6044820152606401610441565b60008211611a9a5760405162461bcd60e51b8152602060048201526015602482015274125b9d985b1a59081c995dd85c9908185b5bdd5b9d605a1b6044820152606401610441565b600081118015611aad575062278d008111155b611aec5760405162461bcd60e51b815260206004820152601060248201526f24b73b30b634b210323ab930ba34b7b760811b6044820152606401610441565b6000611af8824261240a565b600180549192506000919082611b0d83612466565b90915550600081815260046020526040902081815590915060018101611b348789836124cd565b50600281018590556003810183905560048082018054336001600160a01b0319909116811790915560078301805460ff19169055426008840155600081815260056020908152604080832080546001810182559084529190922001859055516323b872dd60e01b815291820152306024820152604481018690527f00000000000000000000000000000000000000000000000000000000000000006001600160a01b0316906323b872dd906064016020604051808303816000875af1158015611c01573d6000803e3d6000fd5b505050506040513d601f19601f82011682018060405250810190611c25919061241d565b611c685760405162461bcd60e51b81526020600482015260146024820152731554d115081d1c985b9cd9995c8819985a5b195960621b6044820152606401610441565b336001600160a01b0316827f29f19e94fdadb6b2187f07cd1ff59ea2d759fe0ae53a0fb6ab2c9ab9325881b589898988604051610a0394939291906125b7565b826001548110611ccb5760405163fea707d960e01b815260040160405180910390fd5b60008481526004602052604090206005015484906001600160a01b03163314611d0757604051631a27eac360e11b815260040160405180910390fd5b600085815260046020526040902060070154859060019060ff1681816006811115611d3457611d34611f65565b14611d56578181604051635879e96d60e11b8152600401610441929190612330565b6000888152600460205260409020600301548890421115611d8a5760405163c034310360e01b815260040160405180910390fd5b60025460ff1615611dae5760405163ab35696f60e01b815260040160405180910390fd5b86611dee5760405162461bcd60e51b815260206004820152601060248201526f22b6b83a3c9039bab136b4b9b9b4b7b760811b6044820152606401610441565b600089815260046020526040902060068101611e0b898b836124cd565b5060078101805460ff1916600217905542600a820181905560405133918c917f1ab2c8b3db130b04659c610d59cd31e68a4d43f1e7b4cdb8e98d9571c9c6bfd691611e59918e918e916125de565b60405180910390a350505050505050505050565b6006602052816000526040600020818154811061079657600080fd5b6040518061016001604052806000815260200160608152602001600081526020016000815260200160006001600160a01b0316815260200160006001600160a01b031681526020016060815260200160006006811115611eeb57611eeb611f65565b81526020016000815260200160008152602001600081525090565b600060208284031215611f1857600080fd5b5035919050565b6000815180845260005b81811015611f4557602081850181015186830182015201611f29565b506000602082860101526020601f19601f83011685010191505092915050565b634e487b7160e01b600052602160045260246000fd5b60078110611f9957634e487b7160e01b600052602160045260246000fd5b9052565b6000610160825184526020830151816020860152611fbd82860182611f1f565b91505060408301516040850152606083015160608501526080830151611fee60808601826001600160a01b03169052565b5060a083015161200960a08601826001600160a01b03169052565b5060c083015184820360c08601526120218282611f1f565b91505060e083015161203660e0860182611f7b565b50610100838101519085015261012080840151908501526101409283015192909301919091525090565b6020815260006120736020830184611f9d565b9392505050565b80356001600160a01b038116811461209157600080fd5b919050565b600080604083850312156120a957600080fd5b6120b28361207a565b946020939093013593505050565b80151581146120ce57600080fd5b50565b600080604083850312156120e457600080fd5b8235915060208301356120f6816120c0565b809150509250929050565b6000602080830181845280855180835260408601915060408160051b870101925083870160005b8281101561215657603f19888603018452612144858351611f9d565b94509285019290850190600101612128565b5092979650505050505050565b60006101608d835280602084015261217d8184018e611f1f565b604084018d9052606084018c90526001600160a01b038b811660808601528a1660a085015283810360c085015290506121b68189611f1f565b9150506121c660e0830187611f7b565b8461010083015283610120830152826101408301529c9b505050505050505050505050565b6000602082840312156121fd57600080fd5b6120738261207a565b6020808252825182820181905260009190848201906040850190845b8181101561223e57835183529284019291840191600101612222565b50909695505050505050565b60008083601f84011261225c57600080fd5b50813567ffffffffffffffff81111561227457600080fd5b60208301915083602082850101111561228c57600080fd5b9250929050565b600080600080606085870312156122a957600080fd5b843567ffffffffffffffff8111156122c057600080fd5b6122cc8782880161224a565b90989097506020870135966040013595509350505050565b6000806000604084860312156122f957600080fd5b83359250602084013567ffffffffffffffff81111561231757600080fd5b6123238682870161224a565b9497909650939450505050565b6040810161233e8285611f7b565b6120736020830184611f7b565b600181811c9082168061235f57607f821691505b60208210810361077457634e487b7160e01b600052602260045260246000fd5b6020808252600990820152682737ba1037bbb732b960b91b604082015260600190565b634e487b7160e01b600052601160045260246000fd5b80820281158282048414176123cf576123cf6123a2565b92915050565b6000826123f257634e487b7160e01b600052601260045260246000fd5b500490565b818103818111156123cf576123cf6123a2565b808201808211156123cf576123cf6123a2565b60006020828403121561242f57600080fd5b8151612073816120c0565b634e487b7160e01b600052604160045260246000fd5b634e487b7160e01b600052603260045260246000fd5b600060018201612478576124786123a2565b5060010190565b601f8211156118e957600081815260208120601f850160051c810160208610156124a65750805b601f850160051c820191505b818110156124c5578281556001016124b2565b505050505050565b67ffffffffffffffff8311156124e5576124e561243a565b6124f9836124f3835461234b565b8361247f565b6000601f84116001811461252d57600085156125155750838201355b600019600387901b1c1916600186901b178355612587565b600083815260209020601f19861690835b8281101561255e578685013582556020948501946001909201910161253e565b508682101561257b5760001960f88860031b161c19848701351681555b505060018560011b0183555b5050505050565b81835281816020850137506000828201602090810191909152601f909101601f19169091010190565b6060815260006125cb60608301868861258e565b6020830194909452506040015292915050565b6040815260006125f260408301858761258e565b905082602083015294935050505056fea2646970667358221220feb02c41050f1e42140bb44184dd77714efdd75ac9116ba3f43c4a2db8bb2ca964736f6c63430008140033",
  "linkReferences": {},
  "deployedLinkReferences": {}
}