{
  "_format": "hh-sol-artifact-1",
  "contractName": "ReviewAndProofs",
  "sourceName": "contracts/ReviewAndProofs.sol",
  "abi": [
    {
      "anonymous": false,
      "inputs": [
        {
          "indexed": true,
          "internalType": "uint256",
          "name": "taskId",
          "type": "uint256"
        },
        {
          "indexed": false,
          "internalType": "uint8",
          "name": "fairness",
          "type": "uint8"
        },
        {
          "indexed": false,
          "internalType": "uint8",
          "name": "responsiveness",
          "type": "uint8"
        },
        {
          "indexed": false,
          "internalType": "uint8",
          "name": "clarity",
          "type": "uint8"
        }
      ],
      "name": "ClientReviewed",
      "type": "event"
    },
    {
      "anonymous": false,
      "inputs": [
        {
          "indexed": true,
          "internalType": "uint256",
          "name": "taskId",
          "type": "uint256"
        },
        {
          "indexed": false,
          "internalType": "uint8",
          "name": "quality",
          "type": "uint8"
        },
        {
          "indexed": false,
          "internalType": "uint8",
          "name": "timeliness",
          "type": "uint8"
        },
        {
          "indexed": false,
          "internalType": "uint8",
          "name": "communication",
          "type": "uint8"
        }
      ],
      "name": "FreelancerReviewed",
      "type": "event"
    },
    {
      "anonymous": false,
      "inputs": [
        {
          "indexed": true,
          "internalType": "uint256",
          "name": "taskId",
          "type": "uint256"
        },
        {
          "indexed": false,
          "internalType": "string",
          "name": "uri",
          "type": "string"
        },
        {
          "indexed": false,
          "internalType": "uint256",
          "name": "timestamp",
          "type": "uint256"
        }
      ],
      "name": "WorkProofUploaded",
      "type": "event"
    },
    {
      "inputs": [
        {
          "internalType": "uint256",
          "name": "",
          "type": "uint256"
        }
      ],
      "name": "clientReviews",
      "outputs": [
        {
          "internalType": "uint8",
          "name": "fairness",
          "type": "uint8"
        },
        {
          "internalType": "uint8",
          "name": "responsiveness",
          "type": "uint8"
        },
        {
          "internalType": "uint8",
          "name": "clarity",
          "type": "uint8"
        },
        {
          "internalType": "string",
          "name": "comment",
          "type": "string"
        }
      ],
      "stateMutability": "view",
      "type": "function"
    },
    {
      "inputs": [
        {
          "internalType": "uint256",
          "name": "",
          "type": "uint256"
        },
        {
          "internalType": "uint256",
          "name": "",
          "type": "uint256"
        }
      ],
      "name": "deliveryProofs",
      "outputs": [
        {
          "internalType": "string",
          "name": "uri",
          "type": "string"
        },
        {
          "internalType": "uint256",
          "name": "timestamp",
          "type": "uint256"
        }
      ],
      "stateMutability": "view",
      "type": "function"
    },
    {
      "inputs": [
        {
          "internalType": "uint256",
          "name": "",
          "type": "uint256"
        }
      ],
      "name": "freelancerReviews",
      "outputs": [
        {
          "internalType": "uint8",
          "name": "quality",
          "type": "uint8"
        },
        {
          "internalType": "uint8",
          "name": "timeliness",
          "type": "uint8"
        },
        {
          "internalType": "uint8",
          "name": "communication",
          "type": "uint8"
        },
        {
          "internalType": "string",
          "name": "comment",
          "type": "string"
        }
      ],
      "stateMutability": "view",
      "type": "function"
    },
    {
      "inputs": [
        {
          "internalType": "uint256",
          "name": "taskId",
          "type": "uint256"
        }
      ],
      "name": "getProofs",
      "outputs": [
        {
          "components": [
            {
              "internalType": "string",
              "name": "uri",
              "type": "string"
            },
            {
              "internalType": "uint256",
              "name": "timestamp",
              "type": "uint256"
            }
          ],
          "internalType": "struct ReviewAndProofs.Proof[]",
          "name": "",
          "type": "tuple[]"
        }
      ],
      "stateMutability": "view",
      "type": "function"
    },
    {
      "inputs": [
        {
          "internalType": "uint256",
          "name": "taskId",
          "type": "uint256"
        },
        {
          "internalType": "uint8",
          "name": "fairness",
          "type": "uint8"
        },
        {
          "internalType": "uint8",
          "name": "responsiveness",
          "type": "uint8"
        },
        {
          "internalType": "uint8",
          "name": "clarity",
          "type": "uint8"
        },
        {
          "internalType": "string",
          "name": "comment",
          "type": "string"
        }
      ],
      "name": "reviewClient",
      "outputs": [],
      "stateMutability": "nonpayable",
      "type": "function"
    },
    {
      "inputs": [
        {
          "internalType": "uint256",
          "name": "taskId",
          "type": "uint256"
        },
        {
          "internalType": "uint8",
          "name": "quality",
          "type": "uint8"
        },
        {
          "internalType": "uint8",
          "name": "timeliness",
          "type": "uint8"
        },
        {
          "internalType": "uint8",
          "name": "communication",
          "type": "uint8"
        },
        {
          "internalType": "string",
          "name": "comment",
          "type": "string"
        }
      ],
      "name": "reviewFreelancer",
      "outputs": [],
      "stateMutability": "nonpayable",
      "type": "function"
    },
    {
      "inputs": [
        {
          "internalType": "uint256",
          "name": "taskId",
          "type": "uint256"
        },
        {
          "internalType": "string",
          "name": "uri",
          "type": "string"
        }
      ],
      "name": "uploadProof",
      "outputs": [],
      "stateMutability": "nonpayable",
      "type": "function"
    }
  ],
  "bytecode": "0x608060405234801561001057600080fd5b50610b3b806100206000396000f3fe608060405234801561001057600080fd5b506004361061007d5760003560e01c8063695690391161005b57806369569039146100d65780638cea70ce146100e9578063c31e2c311461010a578063fc0990fe1461012a57600080fd5b80632a767d811461008257806337718dce146100ae5780634df5f9c7146100c3575b600080fd5b6100956100903660046106f2565b61013d565b6040516100a59493929190610751565b60405180910390f35b6100c16100bc3660046107e8565b6101fc565b005b6100c16100d13660046107e8565b61030f565b6100956100e43660046106f2565b610416565b6100fc6100f7366004610867565b61044f565b6040516100a5929190610889565b61011d6101183660046106f2565b610518565b6040516100a591906108ab565b6100c1610138366004610921565b610626565b60016020819052600091825260409091208054918101805460ff808516946101008104821694620100009091049091169290916101799061096d565b80601f01602080910402602001604051908101604052809291908181526020018280546101a59061096d565b80156101f25780601f106101c7576101008083540402835291602001916101f2565b820191906000526020600020905b8154815290600101906020018083116101d557829003601f168201915b5050505050905084565b60405180608001604052808660ff1681526020018560ff1681526020018460ff16815260200183838080601f0160208091040260200160405190810160405280939291908181526020018383808284376000920182905250939094525050888152602081815260409182902084518154928601519386015160ff908116620100000262ff0000199582166101000261ffff1990951691909216179290921792909216178155606083015190915060018201906102b89082610a0c565b50506040805160ff808916825280881660208301528616918101919091528791507fa836361acbcc60ea207a75903d8a3202c62c21b303cde76850cdb2e1f3dcfcf5906060015b60405180910390a2505050505050565b60405180608001604052808660ff1681526020018560ff1681526020018460ff16815260200183838080601f01602080910402602001604051908101604052809392919081815260200183838082843760009201829052509390945250508881526001602081815260409283902085518154928701519487015160ff908116620100000262ff0000199682166101000261ffff199095169190921617929092179390931617825560608401519192508201906103cb9082610a0c565b50506040805160ff808916825280881660208301528616918101919091528791507fd9cd8541c75723057e0177393cc3a1aa54e959e7a05bd9c979959f432aa9f8ed906060016102ff565b6000602081905290815260409020805460018201805460ff8084169461010085048216946201000090049091169290916101799061096d565b6002602052816000526040600020818154811061046b57600080fd5b90600052602060002090600202016000915091505080600001805461048f9061096d565b80601f01602080910402602001604051908101604052809291908181526020018280546104bb9061096d565b80156105085780601f106104dd57610100808354040283529160200191610508565b820191906000526020600020905b8154815290600101906020018083116104eb57829003601f168201915b5050505050908060010154905082565b606060026000838152602001908152602001600020805480602002602001604051908101604052809291908181526020016000905b8282101561061b57838290600052602060002090600202016040518060400160405290816000820180546105809061096d565b80601f01602080910402602001604051908101604052809291908181526020018280546105ac9061096d565b80156105f95780601f106105ce576101008083540402835291602001916105f9565b820191906000526020600020905b8154815290600101906020018083116105dc57829003601f168201915b505050505081526020016001820154815250508152602001906001019061054d565b505050509050919050565b60026000848152602001908152602001600020604051806040016040528084848080601f01602080910402602001604051908101604052809392919081815260200183838082843760009201829052509385525050426020938401525083546001810185559381522081519192600202019081906106a49082610a0c565b50602082015181600101555050827f3ae57d498345f9182811d34cca1b2e704ce1f9ff9d2da25f06f88e7191b044818383426040516106e593929190610acc565b60405180910390a2505050565b60006020828403121561070457600080fd5b5035919050565b6000815180845260005b8181101561073157602081850181015186830182015201610715565b506000602082860101526020601f19601f83011685010191505092915050565b60ff8516815260ff8416602082015260ff8316604082015260806060820152600061077f608083018461070b565b9695505050505050565b803560ff8116811461079a57600080fd5b919050565b60008083601f8401126107b157600080fd5b50813567ffffffffffffffff8111156107c957600080fd5b6020830191508360208285010111156107e157600080fd5b9250929050565b60008060008060008060a0878903121561080157600080fd5b8635955061081160208801610789565b945061081f60408801610789565b935061082d60608801610789565b9250608087013567ffffffffffffffff81111561084957600080fd5b61085589828a0161079f565b979a9699509497509295939492505050565b6000806040838503121561087a57600080fd5b50508035926020909101359150565b60408152600061089c604083018561070b565b90508260208301529392505050565b60006020808301818452808551808352604092508286019150828160051b87010184880160005b8381101561091357888303603f19018552815180518785526108f68886018261070b565b9189015194890194909452948701949250908601906001016108d2565b509098975050505050505050565b60008060006040848603121561093657600080fd5b83359250602084013567ffffffffffffffff81111561095457600080fd5b6109608682870161079f565b9497909650939450505050565b600181811c9082168061098157607f821691505b6020821081036109a157634e487b7160e01b600052602260045260246000fd5b50919050565b634e487b7160e01b600052604160045260246000fd5b601f821115610a0757600081815260208120601f850160051c810160208610156109e45750805b601f850160051c820191505b81811015610a03578281556001016109f0565b5050505b505050565b815167ffffffffffffffff811115610a2657610a266109a7565b610a3a81610a34845461096d565b846109bd565b602080601f831160018114610a6f5760008415610a575750858301515b600019600386901b1c1916600185901b178555610a03565b600085815260208120601f198616915b82811015610a9e57888601518255948401946001909101908401610a7f565b5085821015610abc5787850151600019600388901b60f8161c191681555b5050505050600190811b01905550565b604081528260408201528284606083013760006060848301015260006060601f19601f860116830101905082602083015294935050505056fea2646970667358221220f34885ccb5823de09f37cf81969ec9e38cde11d4b20bed86b87db19eabe9f86d64736f6c63430008140033",
  "linkReferences": {},
  "deployedLinkReferences": {}
}