{
  "_format": "hh-sol-artifact-1",
  "contractName": "Escrow",
  "sourceName": "contracts/Escrow.sol",
  "abi": [
    {
      "inputs": [
        {
          "internalType": "address",
          "name": "_usdtAddress",
          "type": "address"
        }
      ],
      "stateMutability": "nonpayable",
      "type": "constructor"
    },
    {
      "inputs": [
        {
          "internalType": "uint256",
          "name": "taskId",
          "type": "uint256"
        }
      ],
      "name": "cancelTask",
      "outputs": [],
      "stateMutability": "nonpayable",
      "type": "function"
    },
    {
      "inputs": [],
      "name": "getAllTasks",
      "outputs": [
        {
          "components": [
            {
              "internalType": "string",
              "name": "details",
              "type": "string"
            },
            {
              "internalType": "uint256",
              "name": "reward",
              "type": "uint256"
            },
            {
              "internalType": "address",
              "name": "poster",
              "type": "address"
            },
            {
              "internalType": "bool",
              "name": "isActive",
              "type": "bool"
            }
          ],
          "internalType": "struct Escrow.Task[]",
          "name": "",
          "type": "tuple[]"
        }
      ],
      "stateMutability": "view",
      "type": "function"
    },
    {
      "inputs": [],
      "name": "owner",
      "outputs": [
        {
          "internalType": "address",
          "name": "",
          "type": "address"
        }
      ],
      "stateMutability": "view",
      "type": "function"
    },
    {
      "inputs": [
        {
          "internalType": "string",
          "name": "_details",
          "type": "string"
        },
        {
          "internalType": "uint256",
          "name": "_reward",
          "type": "uint256"
        }
      ],
      "name": "postTask",
      "outputs": [],
      "stateMutability": "nonpayable",
      "type": "function"
    },
    {
      "inputs": [
        {
          "internalType": "uint256",
          "name": "",
          "type": "uint256"
        }
      ],
      "name": "tasks",
      "outputs": [
        {
          "internalType": "string",
          "name": "details",
          "type": "string"
        },
        {
          "internalType": "uint256",
          "name": "reward",
          "type": "uint256"
        },
        {
          "internalType": "address",
          "name": "poster",
          "type": "address"
        },
        {
          "internalType": "bool",
          "name": "isActive",
          "type": "bool"
        }
      ],
      "stateMutability": "view",
      "type": "function"
    },
    {
      "inputs": [],
      "name": "usdt",
      "outputs": [
        {
          "internalType": "contract IUSDT",
          "name": "",
          "type": "address"
        }
      ],
      "stateMutability": "view",
      "type": "function"
    }
  ],
  "bytecode": "0x608060405234801561001057600080fd5b50604051610a5d380380610a5d83398101604081905261002f91610062565b60008054336001600160a01b031991821617909155600180549091166001600160a01b0392909216919091179055610092565b60006020828403121561007457600080fd5b81516001600160a01b038116811461008b57600080fd5b9392505050565b6109bc806100a16000396000f3fe608060405234801561001057600080fd5b50600436106100625760003560e01c80632f48ab7d146100675780634d65b75814610097578063779900b4146100ac5780637eec20a8146100c15780638d977672146100d45780638da5cb5b146100f7575b600080fd5b60015461007a906001600160a01b031681565b6040516001600160a01b0390911681526020015b60405180910390f35b6100aa6100a536600461061a565b61010a565b005b6100b461027e565b60405161008e9190610715565b6100aa6100cf3660046107ab565b6103a4565b6100e76100e23660046107ab565b61052d565b60405161008e94939291906107c4565b60005461007a906001600160a01b031681565b6001546040516323b872dd60e01b8152336004820152306024820152604481018390526001600160a01b03909116906323b872dd906064016020604051808303816000875af1158015610161573d6000803e3d6000fd5b505050506040513d601f19601f8201168201806040525081019061018591906107fe565b6101cd5760405162461bcd60e51b81526020600482015260146024820152731554d115081d1c985b9cd9995c8819985a5b195960621b60448201526064015b60405180910390fd5b60408051608081018252838152602081018390523391810191909152600160608201819052600280549182018155600052815160039091027f405787fa12a823e0f2b7631cc41b3ba8828b3321ca811111fa75cd3aa3bb5ace0190819061023490826108b0565b50602082015160018201556040820151600290910180546060909301511515600160a01b026001600160a81b03199093166001600160a01b03909216919091179190911790555050565b60606002805480602002602001604051908101604052809291908181526020016000905b8282101561039b57838290600052602060002090600302016040518060800160405290816000820180546102d590610827565b80601f016020809104026020016040519081016040528092919081815260200182805461030190610827565b801561034e5780601f106103235761010080835404028352916020019161034e565b820191906000526020600020905b81548152906001019060200180831161033157829003601f168201915b50505091835250506001828101546020808401919091526002909301546001600160a01b0381166040840152600160a01b900460ff161515606090920191909152918352920191016102a2565b50505050905090565b6000600282815481106103b9576103b9610970565b6000918252602090912060039091020160028101549091506001600160a01b031633146104155760405162461bcd60e51b815260206004820152600a6024820152692737ba103837b9ba32b960b11b60448201526064016101c4565b6002810154600160a01b900460ff166104635760405162461bcd60e51b815260206004820152601060248201526f416c726561647920696e61637469766560801b60448201526064016101c4565b60028101805460ff60a01b19169055600180549082015460405163a9059cbb60e01b815233600482015260248101919091526001600160a01b039091169063a9059cbb906044016020604051808303816000875af11580156104c9573d6000803e3d6000fd5b505050506040513d601f19601f820116820180604052508101906104ed91906107fe565b6105295760405162461bcd60e51b815260206004820152600d60248201526c1499599d5b990819985a5b1959609a1b60448201526064016101c4565b5050565b6002818154811061053d57600080fd5b906000526020600020906003020160009150905080600001805461056090610827565b80601f016020809104026020016040519081016040528092919081815260200182805461058c90610827565b80156105d95780601f106105ae576101008083540402835291602001916105d9565b820191906000526020600020905b8154815290600101906020018083116105bc57829003601f168201915b5050505060018301546002909301549192916001600160a01b0381169150600160a01b900460ff1684565b634e487b7160e01b600052604160045260246000fd5b6000806040838503121561062d57600080fd5b823567ffffffffffffffff8082111561064557600080fd5b818501915085601f83011261065957600080fd5b81358181111561066b5761066b610604565b604051601f8201601f19908116603f0116810190838211818310171561069357610693610604565b816040528281528860208487010111156106ac57600080fd5b826020860160208301376000602093820184015298969091013596505050505050565b6000815180845260005b818110156106f5576020818501810151868301820152016106d9565b506000602082860101526020601f19601f83011685010191505092915050565b60006020808301818452808551808352604092508286019150828160051b87010184880160005b8381101561079d57603f19898403018552815160808151818652610762828701826106cf565b838b0151878c0152898401516001600160a01b03168a880152606093840151151593909601929092525050938601939086019060010161073c565b509098975050505050505050565b6000602082840312156107bd57600080fd5b5035919050565b6080815260006107d760808301876106cf565b6020830195909552506001600160a01b039290921660408301521515606090910152919050565b60006020828403121561081057600080fd5b8151801515811461082057600080fd5b9392505050565b600181811c9082168061083b57607f821691505b60208210810361085b57634e487b7160e01b600052602260045260246000fd5b50919050565b601f8211156108ab57600081815260208120601f850160051c810160208610156108885750805b601f850160051c820191505b818110156108a757828155600101610894565b5050505b505050565b815167ffffffffffffffff8111156108ca576108ca610604565b6108de816108d88454610827565b84610861565b602080601f83116001811461091357600084156108fb5750858301515b600019600386901b1c1916600185901b1785556108a7565b600085815260208120601f198616915b8281101561094257888601518255948401946001909101908401610923565b50858210156109605787850151600019600388901b60f8161c191681555b5050505050600190811b01905550565b634e487b7160e01b600052603260045260246000fdfea2646970667358221220c75a6a35a1eeaa859f84a9a62444f5c558e5d7d3d98da9c661b98bbd2e7c6f0964736f6c63430008140033",
  "linkReferences": {},
  "deployedLinkReferences": {}
}