{
  "_format": "hh-sol-artifact-1",
  "contractName": "DisputeLogic",
  "sourceName": "contracts/DisputeLogic.sol",
  "abi": [
    {
      "anonymous": false,
      "inputs": [
        {
          "indexed": true,
          "internalType": "uint256",
          "name": "taskId",
          "type": "uint256"
        }
      ],
      "name": "DisputeEscalated",
      "type": "event"
    },
    {
      "anonymous": false,
      "inputs": [
        {
          "indexed": true,
          "internalType": "uint256",
          "name": "taskId",
          "type": "uint256"
        },
        {
          "indexed": true,
          "internalType": "address",
          "name": "by",
          "type": "address"
        },
        {
          "indexed": false,
          "internalType": "string",
          "name": "reason",
          "type": "string"
        }
      ],
      "name": "DisputeRaised",
      "type": "event"
    },
    {
      "anonymous": false,
      "inputs": [
        {
          "indexed": true,
          "internalType": "uint256",
          "name": "taskId",
          "type": "uint256"
        },
        {
          "indexed": false,
          "internalType": "string",
          "name": "resolution",
          "type": "string"
        }
      ],
      "name": "DisputeResolved",
      "type": "event"
    },
    {
      "inputs": [
        {
          "internalType": "uint256",
          "name": "",
          "type": "uint256"
        }
      ],
      "name": "disputes",
      "outputs": [
        {
          "internalType": "address",
          "name": "raisedBy",
          "type": "address"
        },
        {
          "internalType": "string",
          "name": "reason",
          "type": "string"
        },
        {
          "internalType": "enum DisputeLogic.DisputeStatus",
          "name": "status",
          "type": "uint8"
        },
        {
          "internalType": "uint256",
          "name": "raisedAt",
          "type": "uint256"
        }
      ],
      "stateMutability": "view",
      "type": "function"
    },
    {
      "inputs": [
        {
          "internalType": "uint256",
          "name": "taskId",
          "type": "uint256"
        }
      ],
      "name": "escalateDispute",
      "outputs": [],
      "stateMutability": "nonpayable",
      "type": "function"
    },
    {
      "inputs": [
        {
          "internalType": "uint256",
          "name": "taskId",
          "type": "uint256"
        }
      ],
      "name": "getDispute",
      "outputs": [
        {
          "internalType": "address",
          "name": "raisedBy",
          "type": "address"
        },
        {
          "internalType": "string",
          "name": "reason",
          "type": "string"
        },
        {
          "internalType": "enum DisputeLogic.DisputeStatus",
          "name": "status",
          "type": "uint8"
        },
        {
          "internalType": "uint256",
          "name": "raisedAt",
          "type": "uint256"
        }
      ],
      "stateMutability": "view",
      "type": "function"
    },
    {
      "inputs": [
        {
          "internalType": "uint256",
          "name": "taskId",
          "type": "uint256"
        },
        {
          "internalType": "string",
          "name": "reason",
          "type": "string"
        }
      ],
      "name": "raiseDispute",
      "outputs": [],
      "stateMutability": "nonpayable",
      "type": "function"
    },
    {
      "inputs": [
        {
          "internalType": "uint256",
          "name": "taskId",
          "type": "uint256"
        },
        {
          "internalType": "string",
          "name": "resolution",
          "type": "string"
        }
      ],
      "name": "resolveDispute",
      "outputs": [],
      "stateMutability": "nonpayable",
      "type": "function"
    }
  ],
  "bytecode": "0x608060405234801561001057600080fd5b506108da806100206000396000f3fe608060405234801561001057600080fd5b50600436106100575760003560e01c806320a68d251461005c578063564a565d146100715780635aef573c1461009d578063cf51b45d146100b0578063e3a96cbd146100c3575b600080fd5b61006f61006a3660046105e4565b6100d6565b005b61008461007f3660046105e4565b610201565b6040516100949493929190610613565b60405180910390f35b61006f6100ab36600461069a565b6102c0565b61006f6100be36600461069a565b610447565b6100846100d13660046105e4565b61050d565b806000808281526020819052604090206002015460ff1660038111156100fe576100fe6105fd565b036101435760405162461bcd60e51b815260206004820152601060248201526f139bc8191a5cdc1d5d1948199bdd5b9960821b60448201526064015b60405180910390fd5b600160008381526020819052604090206002015460ff16600381111561016b5761016b6105fd565b146101b85760405162461bcd60e51b815260206004820152601860248201527f4e6f7420656c696769626c6520746f20657363616c6174650000000000000000604482015260640161013a565b6000828152602081905260408082206002908101805460ff191690911790555183917f2dab28113e16ee2fb971a1376ce8421e58fc1c3d20d7acff8927a494fde0cdc091a25050565b600060208190529081526040902080546001820180546001600160a01b03909216929161022d90610716565b80601f016020809104026020016040519081016040528092919081815260200182805461025990610716565b80156102a65780601f1061027b576101008083540402835291602001916102a6565b820191906000526020600020905b81548152906001019060200180831161028957829003601f168201915b505050506002830154600390930154919260ff1691905084565b60008381526020819052604081206002015460ff1660038111156102e6576102e66105fd565b1461032c5760405162461bcd60e51b81526020600482015260166024820152754469737075746520616c72656164792065786973747360501b604482015260640161013a565b6040518060800160405280336001600160a01b0316815260200183838080601f0160208091040260200160405190810160405280939291908181526020018383808284376000920191909152505050908252506020016001815242602091820152600085815280825260409020825181546001600160a01b0319166001600160a01b039091161781559082015160018201906103c890826107b5565b50604082015160028201805460ff191660018360038111156103ec576103ec6105fd565b021790555060608201518160030155905050336001600160a01b0316837f1b84372106d77c6daea0dda35bbc0229d10a83f58ec899092884925193682341848460405161043a929190610875565b60405180910390a3505050565b826000808281526020819052604090206002015460ff16600381111561046f5761046f6105fd565b036104af5760405162461bcd60e51b815260206004820152601060248201526f139bc8191a5cdc1d5d1948199bdd5b9960821b604482015260640161013a565b60008481526020819052604090819020600201805460ff191660031790555184907f831764ac02a33c193cba23a0de34c986e9b50402bf3c9febf6ff2f63d4c0435d906104ff9086908690610875565b60405180910390a250505050565b60008181526020819052604081208054600282015460038301546001840180546060958795869591946001600160a01b03909116939260ff90921691839061055490610716565b80601f016020809104026020016040519081016040528092919081815260200182805461058090610716565b80156105cd5780601f106105a2576101008083540402835291602001916105cd565b820191906000526020600020905b8154815290600101906020018083116105b057829003601f168201915b505050505092509450945094509450509193509193565b6000602082840312156105f657600080fd5b5035919050565b634e487b7160e01b600052602160045260246000fd5b60018060a01b038516815260006020608081840152855180608085015260005b8181101561064f5787810183015185820160a001528201610633565b50600060a0828601015260a0601f19601f830116850101925050506004841061068857634e487b7160e01b600052602160045260246000fd5b60408201939093526060015292915050565b6000806000604084860312156106af57600080fd5b83359250602084013567ffffffffffffffff808211156106ce57600080fd5b818601915086601f8301126106e257600080fd5b8135818111156106f157600080fd5b87602082850101111561070357600080fd5b6020830194508093505050509250925092565b600181811c9082168061072a57607f821691505b60208210810361074a57634e487b7160e01b600052602260045260246000fd5b50919050565b634e487b7160e01b600052604160045260246000fd5b601f8211156107b057600081815260208120601f850160051c8101602086101561078d5750805b601f850160051c820191505b818110156107ac57828155600101610799565b5050505b505050565b815167ffffffffffffffff8111156107cf576107cf610750565b6107e3816107dd8454610716565b84610766565b602080601f83116001811461081857600084156108005750858301515b600019600386901b1c1916600185901b1785556107ac565b600085815260208120601f198616915b8281101561084757888601518255948401946001909101908401610828565b50858210156108655787850151600019600388901b60f8161c191681555b5050505050600190811b01905550565b60208152816020820152818360408301376000818301604090810191909152601f909201601f1916010191905056fea2646970667358221220cd9c3b354ff4a647253523a8228fc39ad929691005cd3dd842fb959bd7c9c46564736f6c63430008140033",
  "linkReferences": {},
  "deployedLinkReferences": {}
}