{
  "_format": "hh-sol-artifact-1",
  "contractName": "Escrow",
  "sourceName": "contracts/Escrow.sol",
  "abi": [
    {
      "inputs": [
        {
          "internalType": "address",
          "name": "_usdtAddress",
          "type": "address"
        }
      ],
      "stateMutability": "nonpayable",
      "type": "constructor"
    },
    {
      "inputs": [
        {
          "internalType": "uint256",
          "name": "taskId",
          "type": "uint256"
        }
      ],
      "name": "cancelTask",
      "outputs": [],
      "stateMutability": "nonpayable",
      "type": "function"
    },
    {
      "inputs": [],
      "name": "getAllTasks",
      "outputs": [
        {
          "components": [
            {
              "internalType": "string",
              "name": "details",
              "type": "string"
            },
            {
              "internalType": "uint256",
              "name": "reward",
              "type": "uint256"
            },
            {
              "internalType": "address",
              "name": "poster",
              "type": "address"
            },
            {
              "internalType": "bool",
              "name": "isActive",
              "type": "bool"
            }
          ],
          "internalType": "struct Escrow.Task[]",
          "name": "",
          "type": "tuple[]"
        }
      ],
      "stateMutability": "view",
      "type": "function"
    },
    {
      "inputs": [],
      "name": "owner",
      "outputs": [
        {
          "internalType": "address",
          "name": "",
          "type": "address"
        }
      ],
      "stateMutability": "view",
      "type": "function"
    },
    {
      "inputs": [
        {
          "internalType": "string",
          "name": "_details",
          "type": "string"
        },
        {
          "internalType": "uint256",
          "name": "_reward",
          "type": "uint256"
        }
      ],
      "name": "postTask",
      "outputs": [],
      "stateMutability": "nonpayable",
      "type": "function"
    },
    {
      "inputs": [
        {
          "internalType": "uint256",
          "name": "",
          "type": "uint256"
        }
      ],
      "name": "tasks",
      "outputs": [
        {
          "internalType": "string",
          "name": "details",
          "type": "string"
        },
        {
          "internalType": "uint256",
          "name": "reward",
          "type": "uint256"
        },
        {
          "internalType": "address",
          "name": "poster",
          "type": "address"
        },
        {
          "internalType": "bool",
          "name": "isActive",
          "type": "bool"
        }
      ],
      "stateMutability": "view",
      "type": "function"
    },
    {
      "inputs": [],
      "name": "usdt",
      "outputs": [
        {
          "internalType": "contract IUSDT",
          "name": "",
          "type": "address"
        }
      ],
      "stateMutability": "view",
      "type": "function"
    }
  ],
  "bytecode": "0x60806040523480156200001157600080fd5b506040516200146638038062001466833981810160405281019062000037919062000129565b336000806101000a81548173ffffffffffffffffffffffffffffffffffffffff021916908373ffffffffffffffffffffffffffffffffffffffff16021790555080600160006101000a81548173ffffffffffffffffffffffffffffffffffffffff021916908373ffffffffffffffffffffffffffffffffffffffff160217905550506200015b565b600080fd5b600073ffffffffffffffffffffffffffffffffffffffff82169050919050565b6000620000f182620000c4565b9050919050565b6200010381620000e4565b81146200010f57600080fd5b50565b6000815190506200012381620000f8565b92915050565b600060208284031215620001425762000141620000bf565b5b6000620001528482850162000112565b91505092915050565b6112fb806200016b6000396000f3fe608060405234801561001057600080fd5b50600436106100625760003560e01c80632f48ab7d146100675780634d65b75814610085578063779900b4146100a15780637eec20a8146100bf5780638d977672146100db5780638da5cb5b1461010e575b600080fd5b61006f61012c565b60405161007c9190610836565b60405180910390f35b61009f600480360381019061009a91906109e1565b610152565b005b6100a9610325565b6040516100b69190610c2c565b60405180910390f35b6100d960048036038101906100d49190610c4e565b610491565b005b6100f560048036038101906100f09190610c4e565b61069e565b6040516101059493929190610cf2565b60405180910390f35b610116610793565b6040516101239190610d3e565b60405180910390f35b600160009054906101000a900473ffffffffffffffffffffffffffffffffffffffff1681565b600160009054906101000a900473ffffffffffffffffffffffffffffffffffffffff1673ffffffffffffffffffffffffffffffffffffffff166323b872dd3330846040518463ffffffff1660e01b81526004016101b193929190610d59565b6020604051808303816000875af11580156101d0573d6000803e3d6000fd5b505050506040513d601f19601f820116820180604052508101906101f49190610dbc565b610233576040517f08c379a000000000000000000000000000000000000000000000000000000000815260040161022a90610e35565b60405180910390fd5b600260405180608001604052808481526020018381526020013373ffffffffffffffffffffffffffffffffffffffff16815260200160011515815250908060018154018082558091505060019003906000526020600020906003020160009091909190915060008201518160000190816102ad9190611057565b506020820151816001015560408201518160020160006101000a81548173ffffffffffffffffffffffffffffffffffffffff021916908373ffffffffffffffffffffffffffffffffffffffff16021790555060608201518160020160146101000a81548160ff02191690831515021790555050505050565b60606002805480602002602001604051908101604052809291908181526020016000905b82821015610488578382906000526020600020906003020160405180608001604052908160008201805461037c90610e84565b80601f01602080910402602001604051908101604052809291908181526020018280546103a890610e84565b80156103f55780601f106103ca576101008083540402835291602001916103f5565b820191906000526020600020905b8154815290600101906020018083116103d857829003601f168201915b50505050508152602001600182015481526020016002820160009054906101000a900473ffffffffffffffffffffffffffffffffffffffff1673ffffffffffffffffffffffffffffffffffffffff1673ffffffffffffffffffffffffffffffffffffffff1681526020016002820160149054906101000a900460ff16151515158152505081526020019060010190610349565b50505050905090565b6000600282815481106104a7576104a6611129565b5b906000526020600020906003020190508060020160009054906101000a900473ffffffffffffffffffffffffffffffffffffffff1673ffffffffffffffffffffffffffffffffffffffff163373ffffffffffffffffffffffffffffffffffffffff1614610549576040517f08c379a0000000000000000000000000000000000000000000000000000000008152600401610540906111a4565b60405180910390fd5b8060020160149054906101000a900460ff1661059a576040517f08c379a000000000000000000000000000000000000000000000000000000000815260040161059190611210565b60405180910390fd5b60008160020160146101000a81548160ff021916908315150217905550600160009054906101000a900473ffffffffffffffffffffffffffffffffffffffff1673ffffffffffffffffffffffffffffffffffffffff1663a9059cbb3383600101546040518363ffffffff1660e01b8152600401610618929190611230565b6020604051808303816000875af1158015610637573d6000803e3d6000fd5b505050506040513d601f19601f8201168201806040525081019061065b9190610dbc565b61069a576040517f08c379a0000000000000000000000000000000000000000000000000000000008152600401610691906112a5565b60405180910390fd5b5050565b600281815481106106ae57600080fd5b90600052602060002090600302016000915090508060000180546106d190610e84565b80601f01602080910402602001604051908101604052809291908181526020018280546106fd90610e84565b801561074a5780601f1061071f5761010080835404028352916020019161074a565b820191906000526020600020905b81548152906001019060200180831161072d57829003601f168201915b5050505050908060010154908060020160009054906101000a900473ffffffffffffffffffffffffffffffffffffffff16908060020160149054906101000a900460ff16905084565b60008054906101000a900473ffffffffffffffffffffffffffffffffffffffff1681565b600073ffffffffffffffffffffffffffffffffffffffff82169050919050565b6000819050919050565b60006107fc6107f76107f2846107b7565b6107d7565b6107b7565b9050919050565b600061080e826107e1565b9050919050565b600061082082610803565b9050919050565b61083081610815565b82525050565b600060208201905061084b6000830184610827565b92915050565b6000604051905090565b600080fd5b600080fd5b600080fd5b600080fd5b6000601f19601f8301169050919050565b7f4e487b7100000000000000000000000000000000000000000000000000000000600052604160045260246000fd5b6108b88261086f565b810181811067ffffffffffffffff821117156108d7576108d6610880565b5b80604052505050565b60006108ea610851565b90506108f682826108af565b919050565b600067ffffffffffffffff82111561091657610915610880565b5b61091f8261086f565b9050602081019050919050565b82818337600083830152505050565b600061094e610949846108fb565b6108e0565b90508281526020810184848401111561096a5761096961086a565b5b61097584828561092c565b509392505050565b600082601f83011261099257610991610865565b5b81356109a284826020860161093b565b91505092915050565b6000819050919050565b6109be816109ab565b81146109c957600080fd5b50565b6000813590506109db816109b5565b92915050565b600080604083850312156109f8576109f761085b565b5b600083013567ffffffffffffffff811115610a1657610a15610860565b5b610a228582860161097d565b9250506020610a33858286016109cc565b9150509250929050565b600081519050919050565b600082825260208201905092915050565b6000819050602082019050919050565b600081519050919050565b600082825260208201905092915050565b60005b83811015610aa3578082015181840152602081019050610a88565b60008484015250505050565b6000610aba82610a69565b610ac48185610a74565b9350610ad4818560208601610a85565b610add8161086f565b840191505092915050565b610af1816109ab565b82525050565b6000610b02826107b7565b9050919050565b610b1281610af7565b82525050565b60008115159050919050565b610b2d81610b18565b82525050565b60006080830160008301518482036000860152610b508282610aaf565b9150506020830151610b656020860182610ae8565b506040830151610b786040860182610b09565b506060830151610b8b6060860182610b24565b508091505092915050565b6000610ba28383610b33565b905092915050565b6000602082019050919050565b6000610bc282610a3d565b610bcc8185610a48565b935083602082028501610bde85610a59565b8060005b85811015610c1a5784840389528151610bfb8582610b96565b9450610c0683610baa565b925060208a01995050600181019050610be2565b50829750879550505050505092915050565b60006020820190508181036000830152610c468184610bb7565b905092915050565b600060208284031215610c6457610c6361085b565b5b6000610c72848285016109cc565b91505092915050565b600082825260208201905092915050565b6000610c9782610a69565b610ca18185610c7b565b9350610cb1818560208601610a85565b610cba8161086f565b840191505092915050565b610cce816109ab565b82525050565b610cdd81610af7565b82525050565b610cec81610b18565b82525050565b60006080820190508181036000830152610d0c8187610c8c565b9050610d1b6020830186610cc5565b610d286040830185610cd4565b610d356060830184610ce3565b95945050505050565b6000602082019050610d536000830184610cd4565b92915050565b6000606082019050610d6e6000830186610cd4565b610d7b6020830185610cd4565b610d886040830184610cc5565b949350505050565b610d9981610b18565b8114610da457600080fd5b50565b600081519050610db681610d90565b92915050565b600060208284031215610dd257610dd161085b565b5b6000610de084828501610da7565b91505092915050565b7f55534454207472616e73666572206661696c6564000000000000000000000000600082015250565b6000610e1f601483610c7b565b9150610e2a82610de9565b602082019050919050565b60006020820190508181036000830152610e4e81610e12565b9050919050565b7f4e487b7100000000000000000000000000000000000000000000000000000000600052602260045260246000fd5b60006002820490506001821680610e9c57607f821691505b602082108103610eaf57610eae610e55565b5b50919050565b60008190508160005260206000209050919050565b60006020601f8301049050919050565b600082821b905092915050565b600060088302610f177fffffffffffffffffffffffffffffffffffffffffffffffffffffffffffffffff82610eda565b610f218683610eda565b95508019841693508086168417925050509392505050565b6000610f54610f4f610f4a846109ab565b6107d7565b6109ab565b9050919050565b6000819050919050565b610f6e83610f39565b610f82610f7a82610f5b565b848454610ee7565b825550505050565b600090565b610f97610f8a565b610fa2818484610f65565b505050565b5b81811015610fc657610fbb600082610f8f565b600181019050610fa8565b5050565b601f82111561100b57610fdc81610eb5565b610fe584610eca565b81016020851015610ff4578190505b61100861100085610eca565b830182610fa7565b50505b505050565b600082821c905092915050565b600061102e60001984600802611010565b1980831691505092915050565b6000611047838361101d565b9150826002028217905092915050565b61106082610a69565b67ffffffffffffffff81111561107957611078610880565b5b6110838254610e84565b61108e828285610fca565b600060209050601f8311600181146110c157600084156110af578287015190505b6110b9858261103b565b865550611121565b601f1984166110cf86610eb5565b60005b828110156110f7578489015182556001820191506020850194506020810190506110d2565b868310156111145784890151611110601f89168261101d565b8355505b6001600288020188555050505b505050505050565b7f4e487b7100000000000000000000000000000000000000000000000000000000600052603260045260246000fd5b7f4e6f7420706f7374657200000000000000000000000000000000000000000000600082015250565b600061118e600a83610c7b565b915061119982611158565b602082019050919050565b600060208201905081810360008301526111bd81611181565b9050919050565b7f416c726561647920696e61637469766500000000000000000000000000000000600082015250565b60006111fa601083610c7b565b9150611205826111c4565b602082019050919050565b60006020820190508181036000830152611229816111ed565b9050919050565b60006040820190506112456000830185610cd4565b6112526020830184610cc5565b9392505050565b7f526566756e64206661696c656400000000000000000000000000000000000000600082015250565b600061128f600d83610c7b565b915061129a82611259565b602082019050919050565b600060208201905081810360008301526112be81611282565b905091905056fea2646970667358221220ea3633474bba30fadf5daa880e617acbd6c3ebcc4e73153b0cc016e6d784cc4764736f6c63430008140033",
  "linkReferences": {},
  "deployedLinkReferences": {}
}