{
  "_format": "hh-sol-artifact-1",
  "contractName": "InstantGigs",
  "sourceName": "contracts/InstantGigs.sol",
  "abi": [
    {
      "inputs": [
        {
          "internalType": "address",
          "name": "_usdt",
          "type": "address"
        }
      ],
      "stateMutability": "nonpayable",
      "type": "constructor"
    },
    {
      "anonymous": false,
      "inputs": [
        {
          "indexed": true,
          "internalType": "uint256",
          "name": "gigId",
          "type": "uint256"
        },
        {
          "indexed": true,
          "internalType": "address",
          "name": "seller",
          "type": "address"
        },
        {
          "indexed": false,
          "internalType": "string",
          "name": "title",
          "type": "string"
        },
        {
          "indexed": false,
          "internalType": "uint256",
          "name": "price",
          "type": "uint256"
        }
      ],
      "name": "GigCreated",
      "type": "event"
    },
    {
      "anonymous": false,
      "inputs": [
        {
          "indexed": true,
          "internalType": "uint256",
          "name": "gigId",
          "type": "uint256"
        },
        {
          "indexed": true,
          "internalType": "address",
          "name": "buyer",
          "type": "address"
        }
      ],
      "name": "GigPurchased",
      "type": "event"
    },
    {
      "inputs": [],
      "name": "USDT",
      "outputs": [
        {
          "internalType": "address",
          "name": "",
          "type": "address"
        }
      ],
      "stateMutability": "view",
      "type": "function"
    },
    {
      "inputs": [
        {
          "internalType": "uint256",
          "name": "",
          "type": "uint256"
        }
      ],
      "name": "buyers",
      "outputs": [
        {
          "internalType": "address",
          "name": "",
          "type": "address"
        }
      ],
      "stateMutability": "view",
      "type": "function"
    },
    {
      "inputs": [
        {
          "internalType": "string",
          "name": "title",
          "type": "string"
        },
        {
          "internalType": "string",
          "name": "description",
          "type": "string"
        },
        {
          "internalType": "uint256",
          "name": "price",
          "type": "uint256"
        }
      ],
      "name": "createGig",
      "outputs": [],
      "stateMutability": "nonpayable",
      "type": "function"
    },
    {
      "inputs": [
        {
          "internalType": "uint256",
          "name": "gigId",
          "type": "uint256"
        }
      ],
      "name": "deactivateGig",
      "outputs": [],
      "stateMutability": "nonpayable",
      "type": "function"
    },
    {
      "inputs": [
        {
          "internalType": "address",
          "name": "seller",
          "type": "address"
        }
      ],
      "name": "getSellerGigs",
      "outputs": [
        {
          "internalType": "uint256[]",
          "name": "",
          "type": "uint256[]"
        }
      ],
      "stateMutability": "view",
      "type": "function"
    },
    {
      "inputs": [],
      "name": "gigCounter",
      "outputs": [
        {
          "internalType": "uint256",
          "name": "",
          "type": "uint256"
        }
      ],
      "stateMutability": "view",
      "type": "function"
    },
    {
      "inputs": [
        {
          "internalType": "uint256",
          "name": "",
          "type": "uint256"
        }
      ],
      "name": "gigs",
      "outputs": [
        {
          "internalType": "address",
          "name": "seller",
          "type": "address"
        },
        {
          "internalType": "string",
          "name": "title",
          "type": "string"
        },
        {
          "internalType": "string",
          "name": "description",
          "type": "string"
        },
        {
          "internalType": "uint256",
          "name": "price",
          "type": "uint256"
        },
        {
          "internalType": "bool",
          "name": "active",
          "type": "bool"
        }
      ],
      "stateMutability": "view",
      "type": "function"
    },
    {
      "inputs": [
        {
          "internalType": "address",
          "name": "",
          "type": "address"
        },
        {
          "internalType": "uint256",
          "name": "",
          "type": "uint256"
        }
      ],
      "name": "gigsBySeller",
      "outputs": [
        {
          "internalType": "uint256",
          "name": "",
          "type": "uint256"
        }
      ],
      "stateMutability": "view",
      "type": "function"
    },
    {
      "inputs": [
        {
          "internalType": "uint256",
          "name": "gigId",
          "type": "uint256"
        }
      ],
      "name": "purchaseGig",
      "outputs": [],
      "stateMutability": "nonpayable",
      "type": "function"
    }
  ],
  "bytecode": "0x608060405234801561001057600080fd5b50604051610b78380380610b7883398101604081905261002f91610054565b600180546001600160a01b0319166001600160a01b0392909216919091179055610084565b60006020828403121561006657600080fd5b81516001600160a01b038116811461007d57600080fd5b9392505050565b610ae5806100936000396000f3fe608060405234801561001057600080fd5b50600436106100935760003560e01c8063c1403fd911610066578063c1403fd91461010e578063c2f7b9b214610117578063c54e44eb1461012a578063ca42f57814610155578063f2aa82181461017557600080fd5b806344a46f93146100985780634f8ea140146100ad5780635e3fbdc8146100c0578063613df930146100ed575b600080fd5b6100ab6100a63660046106b6565b61019e565b005b6100ab6100bb3660046106b6565b610211565b6100d36100ce3660046106b6565b610339565b6040516100e4959493929190610715565b60405180910390f35b6101006100fb366004610781565b610486565b6040519081526020016100e4565b61010060005481565b6100ab6101253660046107f4565b6104b7565b60015461013d906001600160a01b031681565b6040516001600160a01b0390911681526020016100e4565b610168610163366004610868565b61064a565b6040516100e4919061088a565b61013d6101833660046106b6565b6003602052600090815260409020546001600160a01b031681565b6000818152600260205260409020546001600160a01b031633146101f65760405162461bcd60e51b815260206004820152600a6024820152692737ba1039b2b63632b960b11b60448201526064015b60405180910390fd5b6000908152600260205260409020600401805460ff19169055565b6000818152600260205260409020600481015460ff166102645760405162461bcd60e51b815260206004820152600e60248201526d476967206e6f742061637469766560901b60448201526064016101ed565b600154815460038301546040516323b872dd60e01b81523360048201526001600160a01b03928316602482015260448101919091529116906323b872dd906064016020604051808303816000875af11580156102c4573d6000803e3d6000fd5b505050506040513d601f19601f820116820180604052508101906102e891906108ce565b5060008281526003602052604080822080546001600160a01b031916339081179091559051909184917fdd111110b225bfbb1080919899456d200a1c7dfe00d46cde8bd67a99a82aace59190a35050565b600260205260009081526040902080546001820180546001600160a01b039092169291610365906108f0565b80601f0160208091040260200160405190810160405280929190818152602001828054610391906108f0565b80156103de5780601f106103b3576101008083540402835291602001916103de565b820191906000526020600020905b8154815290600101906020018083116103c157829003601f168201915b5050505050908060020180546103f3906108f0565b80601f016020809104026020016040519081016040528092919081815260200182805461041f906108f0565b801561046c5780601f106104415761010080835404028352916020019161046c565b820191906000526020600020905b81548152906001019060200180831161044f57829003601f168201915b50505050600383015460049093015491929160ff16905085565b600460205281600052604060002081815481106104a257600080fd5b90600052602060002001600091509150505481565b6000805490806104c68361092a565b91905055506040518060a00160405280336001600160a01b0316815260200186868080601f016020809104026020016040519081016040528093929190818152602001838380828437600092019190915250505090825250604080516020601f8701819004810282018101909252858152918101919086908690819084018382808284376000920182905250938552505050602080830185905260016040938401819052825483526002825292909120835181546001600160a01b0319166001600160a01b039091161781559083015190918201906105a590826109b6565b50604082015160028201906105ba90826109b6565b50606082015160038201556080909101516004918201805460ff1916911515919091179055336000818152602092835260408082208254815460018101835591845294832001939093555491519091907f930c184011fd2ef0f77fb6fdbb4dcdb36594cb2618053e0009fe4b700b43af099061063b90899089908790610a76565b60405180910390a35050505050565b6001600160a01b0381166000908152600460209081526040918290208054835181840281018401909452808452606093928301828280156106aa57602002820191906000526020600020905b815481526020019060010190808311610696575b50505050509050919050565b6000602082840312156106c857600080fd5b5035919050565b6000815180845260005b818110156106f5576020818501810151868301820152016106d9565b506000602082860101526020601f19601f83011685010191505092915050565b6001600160a01b038616815260a060208201819052600090610739908301876106cf565b828103604084015261074b81876106cf565b606084019590955250509015156080909101529392505050565b80356001600160a01b038116811461077c57600080fd5b919050565b6000806040838503121561079457600080fd5b61079d83610765565b946020939093013593505050565b60008083601f8401126107bd57600080fd5b50813567ffffffffffffffff8111156107d557600080fd5b6020830191508360208285010111156107ed57600080fd5b9250929050565b60008060008060006060868803121561080c57600080fd5b853567ffffffffffffffff8082111561082457600080fd5b61083089838a016107ab565b9097509550602088013591508082111561084957600080fd5b50610856888289016107ab565b96999598509660400135949350505050565b60006020828403121561087a57600080fd5b61088382610765565b9392505050565b6020808252825182820181905260009190848201906040850190845b818110156108c2578351835292840192918401916001016108a6565b50909695505050505050565b6000602082840312156108e057600080fd5b8151801515811461088357600080fd5b600181811c9082168061090457607f821691505b60208210810361092457634e487b7160e01b600052602260045260246000fd5b50919050565b60006001820161094a57634e487b7160e01b600052601160045260246000fd5b5060010190565b634e487b7160e01b600052604160045260246000fd5b601f8211156109b157600081815260208120601f850160051c8101602086101561098e5750805b601f850160051c820191505b818110156109ad5782815560010161099a565b5050505b505050565b815167ffffffffffffffff8111156109d0576109d0610951565b6109e4816109de84546108f0565b84610967565b602080601f831160018114610a195760008415610a015750858301515b600019600386901b1c1916600185901b1785556109ad565b600085815260208120601f198616915b82811015610a4857888601518255948401946001909101908401610a29565b5085821015610a665787850151600019600388901b60f8161c191681555b5050505050600190811b01905550565b604081528260408201528284606083013760006060848301015260006060601f19601f860116830101905082602083015294935050505056fea2646970667358221220c86e91f6d4268ce68abef26ad2e709fc755c2c2347d00ddc7b5f1e72087fb91b64736f6c63430008140033",
  "linkReferences": {},
  "deployedLinkReferences": {}
}